{
	"contracts/Auction.sol": {
		"Auction": {
			"abi": [
				{
					"inputs": [],
					"stateMutability": "payable",
					"type": "constructor"
				},
				{
					"inputs": [],
					"name": "beneficiary",
					"outputs": [
						{
							"internalType": "address",
							"name": "",
							"type": "address"
						}
					],
					"stateMutability": "view",
					"type": "function"
				},
				{
					"inputs": [
						{
							"internalType": "uint256",
							"name": "_itemId",
							"type": "uint256"
						},
						{
							"internalType": "uint256",
							"name": "_count",
							"type": "uint256"
						}
					],
					"name": "bid",
					"outputs": [],
					"stateMutability": "payable",
					"type": "function"
				},
				{
					"inputs": [
						{
							"internalType": "uint256",
							"name": "id",
							"type": "uint256"
						}
					],
					"name": "getPersonDetails",
					"outputs": [
						{
							"internalType": "uint256",
							"name": "",
							"type": "uint256"
						},
						{
							"internalType": "uint256",
							"name": "",
							"type": "uint256"
						},
						{
							"internalType": "address",
							"name": "",
							"type": "address"
						}
					],
					"stateMutability": "view",
					"type": "function"
				},
				{
					"inputs": [
						{
							"internalType": "uint256",
							"name": "",
							"type": "uint256"
						}
					],
					"name": "items",
					"outputs": [
						{
							"internalType": "uint256",
							"name": "itemId",
							"type": "uint256"
						}
					],
					"stateMutability": "view",
					"type": "function"
				},
				{
					"inputs": [],
					"name": "register",
					"outputs": [],
					"stateMutability": "payable",
					"type": "function"
				},
				{
					"inputs": [],
					"name": "revealWinners",
					"outputs": [],
					"stateMutability": "nonpayable",
					"type": "function"
				},
				{
					"inputs": [
						{
							"internalType": "uint256",
							"name": "",
							"type": "uint256"
						}
					],
					"name": "winners",
					"outputs": [
						{
							"internalType": "address",
							"name": "",
							"type": "address"
						}
					],
					"stateMutability": "view",
					"type": "function"
				}
			],
			"devdoc": {
				"kind": "dev",
				"methods": {},
				"version": 1
			},
			"evm": {
				"assembly": "    /* \"contracts/Auction.sol\":72:4323  contract Auction {    ... */\n  mstore(0x40, 0x80)\n    /* \"contracts/Auction.sol\":1092:1093  0 */\n  0x00\n    /* \"contracts/Auction.sol\":1075:1093  uint bidderCount=0 */\n  0x17\n  sstore\n    /* \"contracts/Auction.sol\":1269:1279  msg.sender */\n  caller\n    /* \"contracts/Auction.sol\":1255:1266  beneficiary */\n  0x16\n  0x00\n    /* \"contracts/Auction.sol\":1255:1279  beneficiary = msg.sender */\n  0x0100\n  exp\n  dup2\n  sload\n  dup2\n  0xffffffffffffffffffffffffffffffffffffffff\n  mul\n  not\n  and\n  swap1\n  dup4\n  0xffffffffffffffffffffffffffffffffffffffff\n  and\n  mul\n  or\n  swap1\n  sstore\n  pop\n    /* \"contracts/Auction.sol\":1350:1374  uint[] memory emptyArray */\n  0x60\n    /* \"contracts/Auction.sol\":1396:1434  Item({itemId:0,itemTokens:emptyArray}) */\n  mload(0x40)\n  dup1\n  0x40\n  add\n  0x40\n  mstore\n  dup1\n    /* \"contracts/Auction.sol\":1409:1410  0 */\n  0x00\n    /* \"contracts/Auction.sol\":1396:1434  Item({itemId:0,itemTokens:emptyArray}) */\n  dup2\n  mstore\n  0x20\n  add\n    /* \"contracts/Auction.sol\":1422:1432  emptyArray */\n  dup3\n    /* \"contracts/Auction.sol\":1396:1434  Item({itemId:0,itemTokens:emptyArray}) */\n  dup2\n  mstore\n  pop\n    /* \"contracts/Auction.sol\":1385:1390  items */\n  0x0d\n    /* \"contracts/Auction.sol\":1391:1392  0 */\n  0x00\n    /* \"contracts/Auction.sol\":1385:1393  items[0] */\n  0x03\n  dup2\n  lt\n  tag_3\n  jumpi\n  tag_4\n  tag_5\n  jump\t// in\ntag_4:\ntag_3:\n  0x02\n  mul\n  add\n    /* \"contracts/Auction.sol\":1385:1434  items[0] = Item({itemId:0,itemTokens:emptyArray}) */\n  0x00\n  dup3\n  add\n  mload\n  dup2\n  0x00\n  add\n  sstore\n  0x20\n  dup3\n  add\n  mload\n  dup2\n  0x01\n  add\n  swap1\n  dup1\n  mload\n  swap1\n  0x20\n  add\n  swap1\n  tag_7\n  swap3\n  swap2\n  swap1\n  tag_8\n  jump\t// in\ntag_7:\n  pop\n  swap1\n  pop\n  pop\n    /* \"contracts/Auction.sol\":1456:1494  Item({itemId:1,itemTokens:emptyArray}) */\n  mload(0x40)\n  dup1\n  0x40\n  add\n  0x40\n  mstore\n  dup1\n    /* \"contracts/Auction.sol\":1469:1470  1 */\n  0x01\n    /* \"contracts/Auction.sol\":1456:1494  Item({itemId:1,itemTokens:emptyArray}) */\n  dup2\n  mstore\n  0x20\n  add\n    /* \"contracts/Auction.sol\":1482:1492  emptyArray */\n  dup3\n    /* \"contracts/Auction.sol\":1456:1494  Item({itemId:1,itemTokens:emptyArray}) */\n  dup2\n  mstore\n  pop\n    /* \"contracts/Auction.sol\":1445:1450  items */\n  0x0d\n    /* \"contracts/Auction.sol\":1451:1452  1 */\n  0x01\n    /* \"contracts/Auction.sol\":1445:1453  items[1] */\n  0x03\n  dup2\n  lt\n  tag_9\n  jumpi\n  tag_10\n  tag_5\n  jump\t// in\ntag_10:\ntag_9:\n  0x02\n  mul\n  add\n    /* \"contracts/Auction.sol\":1445:1494  items[1] = Item({itemId:1,itemTokens:emptyArray}) */\n  0x00\n  dup3\n  add\n  mload\n  dup2\n  0x00\n  add\n  sstore\n  0x20\n  dup3\n  add\n  mload\n  dup2\n  0x01\n  add\n  swap1\n  dup1\n  mload\n  swap1\n  0x20\n  add\n  swap1\n  tag_12\n  swap3\n  swap2\n  swap1\n  tag_8\n  jump\t// in\ntag_12:\n  pop\n  swap1\n  pop\n  pop\n    /* \"contracts/Auction.sol\":1516:1554  Item({itemId:2,itemTokens:emptyArray}) */\n  mload(0x40)\n  dup1\n  0x40\n  add\n  0x40\n  mstore\n  dup1\n    /* \"contracts/Auction.sol\":1529:1530  2 */\n  0x02\n    /* \"contracts/Auction.sol\":1516:1554  Item({itemId:2,itemTokens:emptyArray}) */\n  dup2\n  mstore\n  0x20\n  add\n    /* \"contracts/Auction.sol\":1542:1552  emptyArray */\n  dup3\n    /* \"contracts/Auction.sol\":1516:1554  Item({itemId:2,itemTokens:emptyArray}) */\n  dup2\n  mstore\n  pop\n    /* \"contracts/Auction.sol\":1505:1510  items */\n  0x0d\n    /* \"contracts/Auction.sol\":1511:1512  2 */\n  0x02\n    /* \"contracts/Auction.sol\":1505:1513  items[2] */\n  0x03\n  dup2\n  lt\n  tag_13\n  jumpi\n  tag_14\n  tag_5\n  jump\t// in\ntag_14:\ntag_13:\n  0x02\n  mul\n  add\n    /* \"contracts/Auction.sol\":1505:1554  items[2] = Item({itemId:2,itemTokens:emptyArray}) */\n  0x00\n  dup3\n  add\n  mload\n  dup2\n  0x00\n  add\n  sstore\n  0x20\n  dup3\n  add\n  mload\n  dup2\n  0x01\n  add\n  swap1\n  dup1\n  mload\n  swap1\n  0x20\n  add\n  swap1\n  tag_16\n  swap3\n  swap2\n  swap1\n  tag_8\n  jump\t// in\ntag_16:\n  pop\n  swap1\n  pop\n  pop\n    /* \"contracts/Auction.sol\":1179:1562  {    ... */\n  pop\n    /* \"contracts/Auction.sol\":72:4323  contract Auction {    ... */\n  jump(tag_17)\ntag_8:\n  dup3\n  dup1\n  sload\n  dup3\n  dup3\n  sstore\n  swap1\n  0x00\n  mstore\n  keccak256(0x00, 0x20)\n  swap1\n  dup2\n  add\n  swap3\n  dup3\n  iszero\n  tag_18\n  jumpi\n  swap2\n  0x20\n  mul\n  dup3\n  add\ntag_19:\n  dup3\n  dup2\n  gt\n  iszero\n  tag_20\n  jumpi\n  dup3\n  mload\n  dup3\n  sstore\n  swap2\n  0x20\n  add\n  swap2\n  swap1\n  0x01\n  add\n  swap1\n  jump(tag_19)\ntag_20:\ntag_18:\n  pop\n  swap1\n  pop\n  tag_21\n  swap2\n  swap1\n  tag_22\n  jump\t// in\ntag_21:\n  pop\n  swap1\n  jump\t// out\ntag_22:\ntag_23:\n  dup1\n  dup3\n  gt\n  iszero\n  tag_24\n  jumpi\n  0x00\n  dup2\n  0x00\n  swap1\n  sstore\n  pop\n  0x01\n  add\n  jump(tag_23)\ntag_24:\n  pop\n  swap1\n  jump\t// out\n    /* \"#utility.yul\":7:187   */\ntag_5:\n    /* \"#utility.yul\":55:132   */\n  0x4e487b7100000000000000000000000000000000000000000000000000000000\n    /* \"#utility.yul\":52:53   */\n  0x00\n    /* \"#utility.yul\":45:133   */\n  mstore\n    /* \"#utility.yul\":152:156   */\n  0x32\n    /* \"#utility.yul\":149:150   */\n  0x04\n    /* \"#utility.yul\":142:157   */\n  mstore\n    /* \"#utility.yul\":176:180   */\n  0x24\n    /* \"#utility.yul\":173:174   */\n  0x00\n    /* \"#utility.yul\":166:181   */\n  revert\n    /* \"contracts/Auction.sol\":72:4323  contract Auction {    ... */\ntag_17:\n  dataSize(sub_0)\n  dup1\n  dataOffset(sub_0)\n  0x00\n  codecopy\n  0x00\n  return\nstop\n\nsub_0: assembly {\n        /* \"contracts/Auction.sol\":72:4323  contract Auction {    ... */\n      mstore(0x40, 0x80)\n      jumpi(tag_1, lt(calldatasize, 0x04))\n      shr(0xe0, calldataload(0x00))\n      dup1\n      0x60981705\n      gt\n      tag_9\n      jumpi\n      dup1\n      0x60981705\n      eq\n      tag_5\n      jumpi\n      dup1\n      0x952587d6\n      eq\n      tag_6\n      jumpi\n      dup1\n      0xa2fb1175\n      eq\n      tag_7\n      jumpi\n      dup1\n      0xbfb231d2\n      eq\n      tag_8\n      jumpi\n      jump(tag_1)\n    tag_9:\n      dup1\n      0x1aa3a008\n      eq\n      tag_2\n      jumpi\n      dup1\n      0x38af3eed\n      eq\n      tag_3\n      jumpi\n      dup1\n      0x598647f8\n      eq\n      tag_4\n      jumpi\n    tag_1:\n      0x00\n      dup1\n      revert\n        /* \"contracts/Auction.sol\":1612:2184  function register() public payable{... */\n    tag_2:\n      tag_10\n      tag_11\n      jump\t// in\n    tag_10:\n      stop\n        /* \"contracts/Auction.sol\":970:996  address public beneficiary */\n    tag_3:\n      callvalue\n      dup1\n      iszero\n      tag_12\n      jumpi\n      0x00\n      dup1\n      revert\n    tag_12:\n      pop\n      tag_13\n      tag_14\n      jump\t// in\n    tag_13:\n      mload(0x40)\n      tag_15\n      swap2\n      swap1\n      tag_16\n      jump\t// in\n    tag_15:\n      mload(0x40)\n      dup1\n      swap2\n      sub\n      swap1\n      return\n        /* \"contracts/Auction.sol\":2235:3103  function bid(uint _itemId, uint _count) public payable{... */\n    tag_4:\n      tag_17\n      0x04\n      dup1\n      calldatasize\n      sub\n      dup2\n      add\n      swap1\n      tag_18\n      swap2\n      swap1\n      tag_19\n      jump\t// in\n    tag_18:\n      tag_20\n      jump\t// in\n    tag_17:\n      stop\n        /* \"contracts/Auction.sol\":4154:4320  function getPersonDetails(uint id) public view returns(uint,uint,address){... */\n    tag_5:\n      callvalue\n      dup1\n      iszero\n      tag_21\n      jumpi\n      0x00\n      dup1\n      revert\n    tag_21:\n      pop\n      tag_22\n      0x04\n      dup1\n      calldatasize\n      sub\n      dup2\n      add\n      swap1\n      tag_23\n      swap2\n      swap1\n      tag_24\n      jump\t// in\n    tag_23:\n      tag_25\n      jump\t// in\n    tag_22:\n      mload(0x40)\n      tag_26\n      swap4\n      swap3\n      swap2\n      swap1\n      tag_27\n      jump\t// in\n    tag_26:\n      mload(0x40)\n      dup1\n      swap2\n      sub\n      swap1\n      return\n        /* \"contracts/Auction.sol\":3352:4092  function revealWinners() public onlyOwner{... */\n    tag_6:\n      callvalue\n      dup1\n      iszero\n      tag_28\n      jumpi\n      0x00\n      dup1\n      revert\n    tag_28:\n      pop\n      tag_29\n      tag_30\n      jump\t// in\n    tag_29:\n      stop\n        /* \"contracts/Auction.sol\":885:910  address[3] public winners */\n    tag_7:\n      callvalue\n      dup1\n      iszero\n      tag_31\n      jumpi\n      0x00\n      dup1\n      revert\n    tag_31:\n      pop\n      tag_32\n      0x04\n      dup1\n      calldatasize\n      sub\n      dup2\n      add\n      swap1\n      tag_33\n      swap2\n      swap1\n      tag_24\n      jump\t// in\n    tag_33:\n      tag_34\n      jump\t// in\n    tag_32:\n      mload(0x40)\n      tag_35\n      swap2\n      swap1\n      tag_16\n      jump\t// in\n    tag_35:\n      mload(0x40)\n      dup1\n      swap2\n      sub\n      swap1\n      return\n        /* \"contracts/Auction.sol\":788:809  Item [3] public items */\n    tag_8:\n      callvalue\n      dup1\n      iszero\n      tag_36\n      jumpi\n      0x00\n      dup1\n      revert\n    tag_36:\n      pop\n      tag_37\n      0x04\n      dup1\n      calldatasize\n      sub\n      dup2\n      add\n      swap1\n      tag_38\n      swap2\n      swap1\n      tag_24\n      jump\t// in\n    tag_38:\n      tag_39\n      jump\t// in\n    tag_37:\n      mload(0x40)\n      tag_40\n      swap2\n      swap1\n      tag_41\n      jump\t// in\n    tag_40:\n      mload(0x40)\n      dup1\n      swap2\n      sub\n      swap1\n      return\n        /* \"contracts/Auction.sol\":1612:2184  function register() public payable{... */\n    tag_11:\n        /* \"contracts/Auction.sol\":1736:1747  bidderCount */\n      sload(0x17)\n        /* \"contracts/Auction.sol\":1704:1711  bidders */\n      0x01\n        /* \"contracts/Auction.sol\":1712:1723  bidderCount */\n      sload(0x17)\n        /* \"contracts/Auction.sol\":1704:1724  bidders[bidderCount] */\n      0x04\n      dup2\n      lt\n      tag_43\n      jumpi\n      tag_44\n      tag_45\n      jump\t// in\n    tag_44:\n    tag_43:\n      0x03\n      mul\n      add\n        /* \"contracts/Auction.sol\":1704:1733  bidders[bidderCount].personId */\n      0x01\n      add\n        /* \"contracts/Auction.sol\":1704:1747  bidders[bidderCount].personId = bidderCount */\n      dup2\n      swap1\n      sstore\n      pop\n        /* \"contracts/Auction.sol\":1834:1844  msg.sender */\n      caller\n        /* \"contracts/Auction.sol\":1806:1813  bidders */\n      0x01\n        /* \"contracts/Auction.sol\":1814:1825  bidderCount */\n      sload(0x17)\n        /* \"contracts/Auction.sol\":1806:1826  bidders[bidderCount] */\n      0x04\n      dup2\n      lt\n      tag_47\n      jumpi\n      tag_48\n      tag_45\n      jump\t// in\n    tag_48:\n    tag_47:\n      0x03\n      mul\n      add\n        /* \"contracts/Auction.sol\":1806:1831  bidders[bidderCount].addr */\n      0x02\n      add\n      0x00\n        /* \"contracts/Auction.sol\":1806:1844  bidders[bidderCount].addr = msg.sender */\n      0x0100\n      exp\n      dup2\n      sload\n      dup2\n      0xffffffffffffffffffffffffffffffffffffffff\n      mul\n      not\n      and\n      swap1\n      dup4\n      0xffffffffffffffffffffffffffffffffffffffff\n      and\n      mul\n      or\n      swap1\n      sstore\n      pop\n        /* \"contracts/Auction.sol\":1960:1961  5 */\n      0x05\n        /* \"contracts/Auction.sol\":1921:1928  bidders */\n      0x01\n        /* \"contracts/Auction.sol\":1929:1940  bidderCount */\n      sload(0x17)\n        /* \"contracts/Auction.sol\":1921:1941  bidders[bidderCount] */\n      0x04\n      dup2\n      lt\n      tag_50\n      jumpi\n      tag_51\n      tag_45\n      jump\t// in\n    tag_51:\n    tag_50:\n      0x03\n      mul\n      add\n        /* \"contracts/Auction.sol\":1921:1957  bidders[bidderCount].remainingTokens */\n      0x00\n      add\n        /* \"contracts/Auction.sol\":1921:1961  bidders[bidderCount].remainingTokens = 5 */\n      dup2\n      swap1\n      sstore\n      pop\n        /* \"contracts/Auction.sol\":2059:2066  bidders */\n      0x01\n        /* \"contracts/Auction.sol\":2067:2078  bidderCount */\n      sload(0x17)\n        /* \"contracts/Auction.sol\":2059:2079  bidders[bidderCount] */\n      0x04\n      dup2\n      lt\n      tag_53\n      jumpi\n      tag_54\n      tag_45\n      jump\t// in\n    tag_54:\n    tag_53:\n      0x03\n      mul\n      add\n        /* \"contracts/Auction.sol\":2034:2046  tokenDetails */\n      0x00\n        /* \"contracts/Auction.sol\":2034:2058  tokenDetails[msg.sender] */\n      dup1\n        /* \"contracts/Auction.sol\":2047:2057  msg.sender */\n      caller\n        /* \"contracts/Auction.sol\":2034:2058  tokenDetails[msg.sender] */\n      0xffffffffffffffffffffffffffffffffffffffff\n      and\n      0xffffffffffffffffffffffffffffffffffffffff\n      and\n      dup2\n      mstore\n      0x20\n      add\n      swap1\n      dup2\n      mstore\n      0x20\n      add\n      0x00\n      keccak256\n        /* \"contracts/Auction.sol\":2034:2079  tokenDetails[msg.sender]=bidders[bidderCount] */\n      0x00\n      dup3\n      add\n      sload\n      dup2\n      0x00\n      add\n      sstore\n      0x01\n      dup3\n      add\n      sload\n      dup2\n      0x01\n      add\n      sstore\n      0x02\n      dup3\n      add\n      0x00\n      swap1\n      sload\n      swap1\n      0x0100\n      exp\n      swap1\n      div\n      0xffffffffffffffffffffffffffffffffffffffff\n      and\n      dup2\n      0x02\n      add\n      exp(0x0100, 0x00)\n      dup2\n      sload\n      dup2\n      0xffffffffffffffffffffffffffffffffffffffff\n      mul\n      not\n      and\n      swap1\n      dup4\n      0xffffffffffffffffffffffffffffffffffffffff\n      and\n      mul\n      or\n      swap1\n      sstore\n      pop\n      swap1\n      pop\n      pop\n        /* \"contracts/Auction.sol\":2163:2174  bidderCount */\n      0x17\n      0x00\n        /* \"contracts/Auction.sol\":2163:2176  bidderCount++ */\n      dup2\n      sload\n      dup1\n      swap3\n      swap2\n      swap1\n      tag_56\n      swap1\n      tag_57\n      jump\t// in\n    tag_56:\n      swap2\n      swap1\n      pop\n      sstore\n      pop\n        /* \"contracts/Auction.sol\":1612:2184  function register() public payable{... */\n      jump\t// out\n        /* \"contracts/Auction.sol\":970:996  address public beneficiary */\n    tag_14:\n      0x16\n      0x00\n      swap1\n      sload\n      swap1\n      0x0100\n      exp\n      swap1\n      div\n      0xffffffffffffffffffffffffffffffffffffffff\n      and\n      dup2\n      jump\t// out\n        /* \"contracts/Auction.sol\":2235:3103  function bid(uint _itemId, uint _count) public payable{... */\n    tag_20:\n        /* \"contracts/Auction.sol\":2402:2408  _count */\n      dup1\n        /* \"contracts/Auction.sol\":2358:2370  tokenDetails */\n      0x00\n        /* \"contracts/Auction.sol\":2358:2382  tokenDetails[msg.sender] */\n      dup1\n        /* \"contracts/Auction.sol\":2371:2381  msg.sender */\n      caller\n        /* \"contracts/Auction.sol\":2358:2382  tokenDetails[msg.sender] */\n      0xffffffffffffffffffffffffffffffffffffffff\n      and\n      0xffffffffffffffffffffffffffffffffffffffff\n      and\n      dup2\n      mstore\n      0x20\n      add\n      swap1\n      dup2\n      mstore\n      0x20\n      add\n      0x00\n      keccak256\n        /* \"contracts/Auction.sol\":2358:2398  tokenDetails[msg.sender].remainingTokens */\n      0x00\n      add\n      sload\n        /* \"contracts/Auction.sol\":2358:2408  tokenDetails[msg.sender].remainingTokens >= _count */\n      lt\n      iszero\n        /* \"contracts/Auction.sol\":2350:2409  require(tokenDetails[msg.sender].remainingTokens >= _count) */\n      tag_59\n      jumpi\n      0x00\n      dup1\n      revert\n    tag_59:\n        /* \"contracts/Auction.sol\":2525:2526  0 */\n      0x00\n        /* \"contracts/Auction.sol\":2482:2494  tokenDetails */\n      dup1\n        /* \"contracts/Auction.sol\":2482:2506  tokenDetails[msg.sender] */\n      0x00\n        /* \"contracts/Auction.sol\":2495:2505  msg.sender */\n      caller\n        /* \"contracts/Auction.sol\":2482:2506  tokenDetails[msg.sender] */\n      0xffffffffffffffffffffffffffffffffffffffff\n      and\n      0xffffffffffffffffffffffffffffffffffffffff\n      and\n      dup2\n      mstore\n      0x20\n      add\n      swap1\n      dup2\n      mstore\n      0x20\n      add\n      0x00\n      keccak256\n        /* \"contracts/Auction.sol\":2482:2522  tokenDetails[msg.sender].remainingTokens */\n      0x00\n      add\n      sload\n        /* \"contracts/Auction.sol\":2482:2526  tokenDetails[msg.sender].remainingTokens > 0 */\n      gt\n        /* \"contracts/Auction.sol\":2474:2527  require(tokenDetails[msg.sender].remainingTokens > 0) */\n      tag_60\n      jumpi\n      0x00\n      dup1\n      revert\n    tag_60:\n        /* \"contracts/Auction.sol\":2600:2601  2 */\n      0x02\n        /* \"contracts/Auction.sol\":2589:2596  _itemId */\n      dup3\n        /* \"contracts/Auction.sol\":2589:2601  _itemId <= 2 */\n      gt\n      iszero\n        /* \"contracts/Auction.sol\":2581:2602  require(_itemId <= 2) */\n      tag_61\n      jumpi\n      0x00\n      dup1\n      revert\n    tag_61:\n        /* \"contracts/Auction.sol\":2671:2683  uint balance */\n      0x00\n        /* \"contracts/Auction.sol\":2728:2734  _count */\n      dup2\n        /* \"contracts/Auction.sol\":2685:2697  tokenDetails */\n      0x00\n        /* \"contracts/Auction.sol\":2685:2709  tokenDetails[msg.sender] */\n      dup1\n        /* \"contracts/Auction.sol\":2698:2708  msg.sender */\n      caller\n        /* \"contracts/Auction.sol\":2685:2709  tokenDetails[msg.sender] */\n      0xffffffffffffffffffffffffffffffffffffffff\n      and\n      0xffffffffffffffffffffffffffffffffffffffff\n      and\n      dup2\n      mstore\n      0x20\n      add\n      swap1\n      dup2\n      mstore\n      0x20\n      add\n      0x00\n      keccak256\n        /* \"contracts/Auction.sol\":2685:2725  tokenDetails[msg.sender].remainingTokens */\n      0x00\n      add\n      sload\n        /* \"contracts/Auction.sol\":2685:2734  tokenDetails[msg.sender].remainingTokens - _count */\n      tag_62\n      swap2\n      swap1\n      tag_63\n      jump\t// in\n    tag_62:\n        /* \"contracts/Auction.sol\":2671:2734  uint balance= tokenDetails[msg.sender].remainingTokens - _count */\n      swap1\n      pop\n        /* \"contracts/Auction.sol\":2786:2793  balance */\n      dup1\n        /* \"contracts/Auction.sol\":2745:2757  tokenDetails */\n      0x00\n        /* \"contracts/Auction.sol\":2745:2769  tokenDetails[msg.sender] */\n      dup1\n        /* \"contracts/Auction.sol\":2758:2768  msg.sender */\n      caller\n        /* \"contracts/Auction.sol\":2745:2769  tokenDetails[msg.sender] */\n      0xffffffffffffffffffffffffffffffffffffffff\n      and\n      0xffffffffffffffffffffffffffffffffffffffff\n      and\n      dup2\n      mstore\n      0x20\n      add\n      swap1\n      dup2\n      mstore\n      0x20\n      add\n      0x00\n      keccak256\n        /* \"contracts/Auction.sol\":2745:2785  tokenDetails[msg.sender].remainingTokens */\n      0x00\n      add\n        /* \"contracts/Auction.sol\":2745:2793  tokenDetails[msg.sender].remainingTokens=balance */\n      dup2\n      swap1\n      sstore\n      pop\n        /* \"contracts/Auction.sol\":2863:2870  balance */\n      dup1\n        /* \"contracts/Auction.sol\":2804:2811  bidders */\n      0x01\n        /* \"contracts/Auction.sol\":2812:2824  tokenDetails */\n      0x00\n        /* \"contracts/Auction.sol\":2812:2836  tokenDetails[msg.sender] */\n      dup1\n        /* \"contracts/Auction.sol\":2825:2835  msg.sender */\n      caller\n        /* \"contracts/Auction.sol\":2812:2836  tokenDetails[msg.sender] */\n      0xffffffffffffffffffffffffffffffffffffffff\n      and\n      0xffffffffffffffffffffffffffffffffffffffff\n      and\n      dup2\n      mstore\n      0x20\n      add\n      swap1\n      dup2\n      mstore\n      0x20\n      add\n      0x00\n      keccak256\n        /* \"contracts/Auction.sol\":2812:2845  tokenDetails[msg.sender].personId */\n      0x01\n      add\n      sload\n        /* \"contracts/Auction.sol\":2804:2846  bidders[tokenDetails[msg.sender].personId] */\n      0x04\n      dup2\n      lt\n      tag_64\n      jumpi\n      tag_65\n      tag_45\n      jump\t// in\n    tag_65:\n    tag_64:\n      0x03\n      mul\n      add\n        /* \"contracts/Auction.sol\":2804:2862  bidders[tokenDetails[msg.sender].personId].remainingTokens */\n      0x00\n      add\n        /* \"contracts/Auction.sol\":2804:2870  bidders[tokenDetails[msg.sender].personId].remainingTokens=balance */\n      dup2\n      swap1\n      sstore\n      pop\n        /* \"contracts/Auction.sol\":2931:2951  Item storage bidItem */\n      0x00\n        /* \"contracts/Auction.sol\":2954:2959  items */\n      0x0d\n        /* \"contracts/Auction.sol\":2960:2967  _itemId */\n      dup5\n        /* \"contracts/Auction.sol\":2954:2968  items[_itemId] */\n      0x03\n      dup2\n      lt\n      tag_67\n      jumpi\n      tag_68\n      tag_45\n      jump\t// in\n    tag_68:\n    tag_67:\n      0x02\n      mul\n      add\n        /* \"contracts/Auction.sol\":2931:2968  Item storage bidItem = items[_itemId] */\n      swap1\n      pop\n        /* \"contracts/Auction.sol\":2983:2989  uint i */\n      0x00\n        /* \"contracts/Auction.sol\":2979:3096  for(uint i=0; i<_count;i++) {... */\n    tag_70:\n        /* \"contracts/Auction.sol\":2995:3001  _count */\n      dup4\n        /* \"contracts/Auction.sol\":2993:2994  i */\n      dup2\n        /* \"contracts/Auction.sol\":2993:3001  i<_count */\n      lt\n        /* \"contracts/Auction.sol\":2979:3096  for(uint i=0; i<_count;i++) {... */\n      iszero\n      tag_71\n      jumpi\n        /* \"contracts/Auction.sol\":3022:3029  bidItem */\n      dup2\n        /* \"contracts/Auction.sol\":3022:3040  bidItem.itemTokens */\n      0x01\n      add\n        /* \"contracts/Auction.sol\":3046:3058  tokenDetails */\n      0x00\n        /* \"contracts/Auction.sol\":3046:3070  tokenDetails[msg.sender] */\n      dup1\n        /* \"contracts/Auction.sol\":3059:3069  msg.sender */\n      caller\n        /* \"contracts/Auction.sol\":3046:3070  tokenDetails[msg.sender] */\n      0xffffffffffffffffffffffffffffffffffffffff\n      and\n      0xffffffffffffffffffffffffffffffffffffffff\n      and\n      dup2\n      mstore\n      0x20\n      add\n      swap1\n      dup2\n      mstore\n      0x20\n      add\n      0x00\n      keccak256\n        /* \"contracts/Auction.sol\":3046:3079  tokenDetails[msg.sender].personId */\n      0x01\n      add\n      sload\n        /* \"contracts/Auction.sol\":3022:3080  bidItem.itemTokens.push(tokenDetails[msg.sender].personId) */\n      swap1\n      dup1\n      0x01\n      dup2\n      sload\n      add\n      dup1\n      dup3\n      sstore\n      dup1\n      swap2\n      pop\n      pop\n      0x01\n      swap1\n      sub\n      swap1\n      0x00\n      mstore\n      keccak256(0x00, 0x20)\n      add\n      0x00\n      swap1\n      swap2\n      swap1\n      swap2\n      swap1\n      swap2\n      pop\n      sstore\n        /* \"contracts/Auction.sol\":3002:3005  i++ */\n      dup1\n      dup1\n      0x01\n      add\n      swap2\n      pop\n      pop\n        /* \"contracts/Auction.sol\":2979:3096  for(uint i=0; i<_count;i++) {... */\n      jump(tag_70)\n    tag_71:\n      pop\n        /* \"contracts/Auction.sol\":2289:3103  {... */\n      pop\n      pop\n        /* \"contracts/Auction.sol\":2235:3103  function bid(uint _itemId, uint _count) public payable{... */\n      pop\n      pop\n      jump\t// out\n        /* \"contracts/Auction.sol\":4154:4320  function getPersonDetails(uint id) public view returns(uint,uint,address){... */\n    tag_25:\n        /* \"contracts/Auction.sol\":4209:4213  uint */\n      0x00\n        /* \"contracts/Auction.sol\":4214:4218  uint */\n      dup1\n        /* \"contracts/Auction.sol\":4219:4226  address */\n      0x00\n        /* \"contracts/Auction.sol\":4246:4253  bidders */\n      0x01\n        /* \"contracts/Auction.sol\":4254:4256  id */\n      dup5\n        /* \"contracts/Auction.sol\":4246:4257  bidders[id] */\n      0x04\n      dup2\n      lt\n      tag_75\n      jumpi\n      tag_76\n      tag_45\n      jump\t// in\n    tag_76:\n    tag_75:\n      0x03\n      mul\n      add\n        /* \"contracts/Auction.sol\":4246:4273  bidders[id].remainingTokens */\n      0x00\n      add\n      sload\n        /* \"contracts/Auction.sol\":4274:4281  bidders */\n      0x01\n        /* \"contracts/Auction.sol\":4282:4284  id */\n      dup6\n        /* \"contracts/Auction.sol\":4274:4285  bidders[id] */\n      0x04\n      dup2\n      lt\n      tag_78\n      jumpi\n      tag_79\n      tag_45\n      jump\t// in\n    tag_79:\n    tag_78:\n      0x03\n      mul\n      add\n        /* \"contracts/Auction.sol\":4274:4294  bidders[id].personId */\n      0x01\n      add\n      sload\n        /* \"contracts/Auction.sol\":4295:4302  bidders */\n      0x01\n        /* \"contracts/Auction.sol\":4303:4305  id */\n      dup7\n        /* \"contracts/Auction.sol\":4295:4306  bidders[id] */\n      0x04\n      dup2\n      lt\n      tag_81\n      jumpi\n      tag_82\n      tag_45\n      jump\t// in\n    tag_82:\n    tag_81:\n      0x03\n      mul\n      add\n        /* \"contracts/Auction.sol\":4295:4311  bidders[id].addr */\n      0x02\n      add\n      0x00\n      swap1\n      sload\n      swap1\n      0x0100\n      exp\n      swap1\n      div\n      0xffffffffffffffffffffffffffffffffffffffff\n      and\n        /* \"contracts/Auction.sol\":4238:4312  return (bidders[id].remainingTokens,bidders[id].personId,bidders[id].addr) */\n      swap3\n      pop\n      swap3\n      pop\n      swap3\n      pop\n        /* \"contracts/Auction.sol\":4154:4320  function getPersonDetails(uint id) public view returns(uint,uint,address){... */\n      swap2\n      swap4\n      swap1\n      swap3\n      pop\n      jump\t// out\n        /* \"contracts/Auction.sol\":3352:4092  function revealWinners() public onlyOwner{... */\n    tag_30:\n        /* \"contracts/Auction.sol\":3258:3269  beneficiary */\n      0x16\n      0x00\n      swap1\n      sload\n      swap1\n      0x0100\n      exp\n      swap1\n      div\n      0xffffffffffffffffffffffffffffffffffffffff\n      and\n        /* \"contracts/Auction.sol\":3244:3269  msg.sender == beneficiary */\n      0xffffffffffffffffffffffffffffffffffffffff\n      and\n        /* \"contracts/Auction.sol\":3244:3254  msg.sender */\n      caller\n        /* \"contracts/Auction.sol\":3244:3269  msg.sender == beneficiary */\n      0xffffffffffffffffffffffffffffffffffffffff\n      and\n      eq\n        /* \"contracts/Auction.sol\":3236:3270  require(msg.sender == beneficiary) */\n      tag_85\n      jumpi\n      0x00\n      dup1\n      revert\n    tag_85:\n        /* \"contracts/Auction.sol\":3448:3455  uint id */\n      0x00\n        /* \"contracts/Auction.sol\":3443:4085  for (uint id = 0; id < 3; id++) {... */\n    tag_87:\n        /* \"contracts/Auction.sol\":3466:3467  3 */\n      0x03\n        /* \"contracts/Auction.sol\":3461:3463  id */\n      dup2\n        /* \"contracts/Auction.sol\":3461:3467  id < 3 */\n      lt\n        /* \"contracts/Auction.sol\":3443:4085  for (uint id = 0; id < 3; id++) {... */\n      iszero\n      tag_88\n      jumpi\n        /* \"contracts/Auction.sol\":3490:3514  Item storage currentItem */\n      0x00\n        /* \"contracts/Auction.sol\":3515:3520  items */\n      0x0d\n        /* \"contracts/Auction.sol\":3521:3523  id */\n      dup3\n        /* \"contracts/Auction.sol\":3515:3524  items[id] */\n      0x03\n      dup2\n      lt\n      tag_90\n      jumpi\n      tag_91\n      tag_45\n      jump\t// in\n    tag_91:\n    tag_90:\n      0x02\n      mul\n      add\n        /* \"contracts/Auction.sol\":3490:3524  Item storage currentItem=items[id] */\n      swap1\n      pop\n        /* \"contracts/Auction.sol\":3631:3632  0 */\n      0x00\n        /* \"contracts/Auction.sol\":3598:3609  currentItem */\n      dup2\n        /* \"contracts/Auction.sol\":3598:3620  currentItem.itemTokens */\n      0x01\n      add\n        /* \"contracts/Auction.sol\":3598:3627  currentItem.itemTokens.length */\n      dup1\n      sload\n      swap1\n      pop\n        /* \"contracts/Auction.sol\":3598:3632  currentItem.itemTokens.length != 0 */\n      eq\n        /* \"contracts/Auction.sol\":3595:4074  if(currentItem.itemTokens.length != 0){... */\n      tag_93\n      jumpi\n        /* \"contracts/Auction.sol\":3722:3738  uint randomIndex */\n      0x00\n        /* \"contracts/Auction.sol\":3789:3800  currentItem */\n      dup2\n        /* \"contracts/Auction.sol\":3789:3811  currentItem.itemTokens */\n      0x01\n      add\n        /* \"contracts/Auction.sol\":3789:3818  currentItem.itemTokens.length */\n      dup1\n      sload\n      swap1\n      pop\n        /* \"contracts/Auction.sol\":3757:3768  currentItem */\n      dup3\n        /* \"contracts/Auction.sol\":3757:3779  currentItem.itemTokens */\n      0x01\n      add\n        /* \"contracts/Auction.sol\":3757:3786  currentItem.itemTokens.length */\n      dup1\n      sload\n      swap1\n      pop\n        /* \"contracts/Auction.sol\":3742:3754  block.number */\n      number\n        /* \"contracts/Auction.sol\":3742:3786  block.number / currentItem.itemTokens.length */\n      tag_94\n      swap2\n      swap1\n      tag_95\n      jump\t// in\n    tag_94:\n        /* \"contracts/Auction.sol\":3741:3818  (block.number / currentItem.itemTokens.length)% currentItem.itemTokens.length */\n      tag_96\n      swap2\n      swap1\n      tag_97\n      jump\t// in\n    tag_96:\n        /* \"contracts/Auction.sol\":3722:3818  uint randomIndex = (block.number / currentItem.itemTokens.length)% currentItem.itemTokens.length */\n      swap1\n      pop\n        /* \"contracts/Auction.sol\":3883:3896  uint winnerId */\n      0x00\n        /* \"contracts/Auction.sol\":3899:3910  currentItem */\n      dup3\n        /* \"contracts/Auction.sol\":3899:3921  currentItem.itemTokens */\n      0x01\n      add\n        /* \"contracts/Auction.sol\":3922:3933  randomIndex */\n      dup3\n        /* \"contracts/Auction.sol\":3899:3934  currentItem.itemTokens[randomIndex] */\n      dup2\n      sload\n      dup2\n      lt\n      tag_98\n      jumpi\n      tag_99\n      tag_45\n      jump\t// in\n    tag_99:\n    tag_98:\n      swap1\n      0x00\n      mstore\n      keccak256(0x00, 0x20)\n      add\n      sload\n        /* \"contracts/Auction.sol\":3883:3934  uint winnerId = currentItem.itemTokens[randomIndex] */\n      swap1\n      pop\n        /* \"contracts/Auction.sol\":4036:4043  bidders */\n      0x01\n        /* \"contracts/Auction.sol\":4044:4052  winnerId */\n      dup2\n        /* \"contracts/Auction.sol\":4036:4053  bidders[winnerId] */\n      0x04\n      dup2\n      lt\n      tag_101\n      jumpi\n      tag_102\n      tag_45\n      jump\t// in\n    tag_102:\n    tag_101:\n      0x03\n      mul\n      add\n        /* \"contracts/Auction.sol\":4036:4058  bidders[winnerId].addr */\n      0x02\n      add\n      0x00\n      swap1\n      sload\n      swap1\n      0x0100\n      exp\n      swap1\n      div\n      0xffffffffffffffffffffffffffffffffffffffff\n      and\n        /* \"contracts/Auction.sol\":4022:4029  winners */\n      0x13\n        /* \"contracts/Auction.sol\":4030:4032  id */\n      dup6\n        /* \"contracts/Auction.sol\":4022:4033  winners[id] */\n      0x03\n      dup2\n      lt\n      tag_104\n      jumpi\n      tag_105\n      tag_45\n      jump\t// in\n    tag_105:\n    tag_104:\n      add\n      0x00\n        /* \"contracts/Auction.sol\":4022:4058  winners[id] = bidders[winnerId].addr */\n      0x0100\n      exp\n      dup2\n      sload\n      dup2\n      0xffffffffffffffffffffffffffffffffffffffff\n      mul\n      not\n      and\n      swap1\n      dup4\n      0xffffffffffffffffffffffffffffffffffffffff\n      and\n      mul\n      or\n      swap1\n      sstore\n      pop\n        /* \"contracts/Auction.sol\":3633:4074  {... */\n      pop\n      pop\n        /* \"contracts/Auction.sol\":3595:4074  if(currentItem.itemTokens.length != 0){... */\n    tag_93:\n        /* \"contracts/Auction.sol\":3475:4085  {... */\n      pop\n        /* \"contracts/Auction.sol\":3469:3473  id++ */\n      dup1\n      dup1\n      0x01\n      add\n      swap2\n      pop\n      pop\n        /* \"contracts/Auction.sol\":3443:4085  for (uint id = 0; id < 3; id++) {... */\n      jump(tag_87)\n    tag_88:\n      pop\n        /* \"contracts/Auction.sol\":3352:4092  function revealWinners() public onlyOwner{... */\n      jump\t// out\n        /* \"contracts/Auction.sol\":885:910  address[3] public winners */\n    tag_34:\n      0x13\n      dup2\n      0x03\n      dup2\n      lt\n      tag_107\n      jumpi\n      0x00\n      dup1\n      revert\n    tag_107:\n      add\n      0x00\n      swap2\n      pop\n      sload\n      swap1\n      0x0100\n      exp\n      swap1\n      div\n      0xffffffffffffffffffffffffffffffffffffffff\n      and\n      dup2\n      jump\t// out\n        /* \"contracts/Auction.sol\":788:809  Item [3] public items */\n    tag_39:\n      0x0d\n      dup2\n      0x03\n      dup2\n      lt\n      tag_109\n      jumpi\n      0x00\n      dup1\n      revert\n    tag_109:\n      0x02\n      mul\n      add\n      0x00\n      swap2\n      pop\n      swap1\n      pop\n      dup1\n      0x00\n      add\n      sload\n      swap1\n      pop\n      dup2\n      jump\t// out\n        /* \"#utility.yul\":7:133   */\n    tag_111:\n        /* \"#utility.yul\":44:51   */\n      0x00\n        /* \"#utility.yul\":84:126   */\n      0xffffffffffffffffffffffffffffffffffffffff\n        /* \"#utility.yul\":77:82   */\n      dup3\n        /* \"#utility.yul\":73:127   */\n      and\n        /* \"#utility.yul\":62:127   */\n      swap1\n      pop\n        /* \"#utility.yul\":7:133   */\n      swap2\n      swap1\n      pop\n      jump\t// out\n        /* \"#utility.yul\":139:235   */\n    tag_112:\n        /* \"#utility.yul\":176:183   */\n      0x00\n        /* \"#utility.yul\":205:229   */\n      tag_126\n        /* \"#utility.yul\":223:228   */\n      dup3\n        /* \"#utility.yul\":205:229   */\n      tag_111\n      jump\t// in\n    tag_126:\n        /* \"#utility.yul\":194:229   */\n      swap1\n      pop\n        /* \"#utility.yul\":139:235   */\n      swap2\n      swap1\n      pop\n      jump\t// out\n        /* \"#utility.yul\":241:359   */\n    tag_113:\n        /* \"#utility.yul\":328:352   */\n      tag_128\n        /* \"#utility.yul\":346:351   */\n      dup2\n        /* \"#utility.yul\":328:352   */\n      tag_112\n      jump\t// in\n    tag_128:\n        /* \"#utility.yul\":323:326   */\n      dup3\n        /* \"#utility.yul\":316:353   */\n      mstore\n        /* \"#utility.yul\":241:359   */\n      pop\n      pop\n      jump\t// out\n        /* \"#utility.yul\":365:587   */\n    tag_16:\n        /* \"#utility.yul\":458:462   */\n      0x00\n        /* \"#utility.yul\":496:498   */\n      0x20\n        /* \"#utility.yul\":485:494   */\n      dup3\n        /* \"#utility.yul\":481:499   */\n      add\n        /* \"#utility.yul\":473:499   */\n      swap1\n      pop\n        /* \"#utility.yul\":509:580   */\n      tag_130\n        /* \"#utility.yul\":577:578   */\n      0x00\n        /* \"#utility.yul\":566:575   */\n      dup4\n        /* \"#utility.yul\":562:579   */\n      add\n        /* \"#utility.yul\":553:559   */\n      dup5\n        /* \"#utility.yul\":509:580   */\n      tag_113\n      jump\t// in\n    tag_130:\n        /* \"#utility.yul\":365:587   */\n      swap3\n      swap2\n      pop\n      pop\n      jump\t// out\n        /* \"#utility.yul\":674:791   */\n    tag_115:\n        /* \"#utility.yul\":783:784   */\n      0x00\n        /* \"#utility.yul\":780:781   */\n      dup1\n        /* \"#utility.yul\":773:785   */\n      revert\n        /* \"#utility.yul\":920:997   */\n    tag_117:\n        /* \"#utility.yul\":957:964   */\n      0x00\n        /* \"#utility.yul\":986:991   */\n      dup2\n        /* \"#utility.yul\":975:991   */\n      swap1\n      pop\n        /* \"#utility.yul\":920:997   */\n      swap2\n      swap1\n      pop\n      jump\t// out\n        /* \"#utility.yul\":1003:1125   */\n    tag_118:\n        /* \"#utility.yul\":1076:1100   */\n      tag_136\n        /* \"#utility.yul\":1094:1099   */\n      dup2\n        /* \"#utility.yul\":1076:1100   */\n      tag_117\n      jump\t// in\n    tag_136:\n        /* \"#utility.yul\":1069:1074   */\n      dup2\n        /* \"#utility.yul\":1066:1101   */\n      eq\n        /* \"#utility.yul\":1056:1119   */\n      tag_137\n      jumpi\n        /* \"#utility.yul\":1115:1116   */\n      0x00\n        /* \"#utility.yul\":1112:1113   */\n      dup1\n        /* \"#utility.yul\":1105:1117   */\n      revert\n        /* \"#utility.yul\":1056:1119   */\n    tag_137:\n        /* \"#utility.yul\":1003:1125   */\n      pop\n      jump\t// out\n        /* \"#utility.yul\":1131:1270   */\n    tag_119:\n        /* \"#utility.yul\":1177:1182   */\n      0x00\n        /* \"#utility.yul\":1215:1221   */\n      dup2\n        /* \"#utility.yul\":1202:1222   */\n      calldataload\n        /* \"#utility.yul\":1193:1222   */\n      swap1\n      pop\n        /* \"#utility.yul\":1231:1264   */\n      tag_139\n        /* \"#utility.yul\":1258:1263   */\n      dup2\n        /* \"#utility.yul\":1231:1264   */\n      tag_118\n      jump\t// in\n    tag_139:\n        /* \"#utility.yul\":1131:1270   */\n      swap3\n      swap2\n      pop\n      pop\n      jump\t// out\n        /* \"#utility.yul\":1276:1750   */\n    tag_19:\n        /* \"#utility.yul\":1344:1350   */\n      0x00\n        /* \"#utility.yul\":1352:1358   */\n      dup1\n        /* \"#utility.yul\":1401:1403   */\n      0x40\n        /* \"#utility.yul\":1389:1398   */\n      dup4\n        /* \"#utility.yul\":1380:1387   */\n      dup6\n        /* \"#utility.yul\":1376:1399   */\n      sub\n        /* \"#utility.yul\":1372:1404   */\n      slt\n        /* \"#utility.yul\":1369:1488   */\n      iszero\n      tag_141\n      jumpi\n        /* \"#utility.yul\":1407:1486   */\n      tag_142\n      tag_115\n      jump\t// in\n    tag_142:\n        /* \"#utility.yul\":1369:1488   */\n    tag_141:\n        /* \"#utility.yul\":1527:1528   */\n      0x00\n        /* \"#utility.yul\":1552:1605   */\n      tag_143\n        /* \"#utility.yul\":1597:1604   */\n      dup6\n        /* \"#utility.yul\":1588:1594   */\n      dup3\n        /* \"#utility.yul\":1577:1586   */\n      dup7\n        /* \"#utility.yul\":1573:1595   */\n      add\n        /* \"#utility.yul\":1552:1605   */\n      tag_119\n      jump\t// in\n    tag_143:\n        /* \"#utility.yul\":1542:1605   */\n      swap3\n      pop\n        /* \"#utility.yul\":1498:1615   */\n      pop\n        /* \"#utility.yul\":1654:1656   */\n      0x20\n        /* \"#utility.yul\":1680:1733   */\n      tag_144\n        /* \"#utility.yul\":1725:1732   */\n      dup6\n        /* \"#utility.yul\":1716:1722   */\n      dup3\n        /* \"#utility.yul\":1705:1714   */\n      dup7\n        /* \"#utility.yul\":1701:1723   */\n      add\n        /* \"#utility.yul\":1680:1733   */\n      tag_119\n      jump\t// in\n    tag_144:\n        /* \"#utility.yul\":1670:1733   */\n      swap2\n      pop\n        /* \"#utility.yul\":1625:1743   */\n      pop\n        /* \"#utility.yul\":1276:1750   */\n      swap3\n      pop\n      swap3\n      swap1\n      pop\n      jump\t// out\n        /* \"#utility.yul\":1756:2085   */\n    tag_24:\n        /* \"#utility.yul\":1815:1821   */\n      0x00\n        /* \"#utility.yul\":1864:1866   */\n      0x20\n        /* \"#utility.yul\":1852:1861   */\n      dup3\n        /* \"#utility.yul\":1843:1850   */\n      dup5\n        /* \"#utility.yul\":1839:1862   */\n      sub\n        /* \"#utility.yul\":1835:1867   */\n      slt\n        /* \"#utility.yul\":1832:1951   */\n      iszero\n      tag_146\n      jumpi\n        /* \"#utility.yul\":1870:1949   */\n      tag_147\n      tag_115\n      jump\t// in\n    tag_147:\n        /* \"#utility.yul\":1832:1951   */\n    tag_146:\n        /* \"#utility.yul\":1990:1991   */\n      0x00\n        /* \"#utility.yul\":2015:2068   */\n      tag_148\n        /* \"#utility.yul\":2060:2067   */\n      dup5\n        /* \"#utility.yul\":2051:2057   */\n      dup3\n        /* \"#utility.yul\":2040:2049   */\n      dup6\n        /* \"#utility.yul\":2036:2058   */\n      add\n        /* \"#utility.yul\":2015:2068   */\n      tag_119\n      jump\t// in\n    tag_148:\n        /* \"#utility.yul\":2005:2068   */\n      swap2\n      pop\n        /* \"#utility.yul\":1961:2078   */\n      pop\n        /* \"#utility.yul\":1756:2085   */\n      swap3\n      swap2\n      pop\n      pop\n      jump\t// out\n        /* \"#utility.yul\":2091:2209   */\n    tag_120:\n        /* \"#utility.yul\":2178:2202   */\n      tag_150\n        /* \"#utility.yul\":2196:2201   */\n      dup2\n        /* \"#utility.yul\":2178:2202   */\n      tag_117\n      jump\t// in\n    tag_150:\n        /* \"#utility.yul\":2173:2176   */\n      dup3\n        /* \"#utility.yul\":2166:2203   */\n      mstore\n        /* \"#utility.yul\":2091:2209   */\n      pop\n      pop\n      jump\t// out\n        /* \"#utility.yul\":2215:2657   */\n    tag_27:\n        /* \"#utility.yul\":2364:2368   */\n      0x00\n        /* \"#utility.yul\":2402:2404   */\n      0x60\n        /* \"#utility.yul\":2391:2400   */\n      dup3\n        /* \"#utility.yul\":2387:2405   */\n      add\n        /* \"#utility.yul\":2379:2405   */\n      swap1\n      pop\n        /* \"#utility.yul\":2415:2486   */\n      tag_152\n        /* \"#utility.yul\":2483:2484   */\n      0x00\n        /* \"#utility.yul\":2472:2481   */\n      dup4\n        /* \"#utility.yul\":2468:2485   */\n      add\n        /* \"#utility.yul\":2459:2465   */\n      dup7\n        /* \"#utility.yul\":2415:2486   */\n      tag_120\n      jump\t// in\n    tag_152:\n        /* \"#utility.yul\":2496:2568   */\n      tag_153\n        /* \"#utility.yul\":2564:2566   */\n      0x20\n        /* \"#utility.yul\":2553:2562   */\n      dup4\n        /* \"#utility.yul\":2549:2567   */\n      add\n        /* \"#utility.yul\":2540:2546   */\n      dup6\n        /* \"#utility.yul\":2496:2568   */\n      tag_120\n      jump\t// in\n    tag_153:\n        /* \"#utility.yul\":2578:2650   */\n      tag_154\n        /* \"#utility.yul\":2646:2648   */\n      0x40\n        /* \"#utility.yul\":2635:2644   */\n      dup4\n        /* \"#utility.yul\":2631:2649   */\n      add\n        /* \"#utility.yul\":2622:2628   */\n      dup5\n        /* \"#utility.yul\":2578:2650   */\n      tag_113\n      jump\t// in\n    tag_154:\n        /* \"#utility.yul\":2215:2657   */\n      swap5\n      swap4\n      pop\n      pop\n      pop\n      pop\n      jump\t// out\n        /* \"#utility.yul\":2663:2885   */\n    tag_41:\n        /* \"#utility.yul\":2756:2760   */\n      0x00\n        /* \"#utility.yul\":2794:2796   */\n      0x20\n        /* \"#utility.yul\":2783:2792   */\n      dup3\n        /* \"#utility.yul\":2779:2797   */\n      add\n        /* \"#utility.yul\":2771:2797   */\n      swap1\n      pop\n        /* \"#utility.yul\":2807:2878   */\n      tag_156\n        /* \"#utility.yul\":2875:2876   */\n      0x00\n        /* \"#utility.yul\":2864:2873   */\n      dup4\n        /* \"#utility.yul\":2860:2877   */\n      add\n        /* \"#utility.yul\":2851:2857   */\n      dup5\n        /* \"#utility.yul\":2807:2878   */\n      tag_120\n      jump\t// in\n    tag_156:\n        /* \"#utility.yul\":2663:2885   */\n      swap3\n      swap2\n      pop\n      pop\n      jump\t// out\n        /* \"#utility.yul\":2891:3071   */\n    tag_45:\n        /* \"#utility.yul\":2939:3016   */\n      0x4e487b7100000000000000000000000000000000000000000000000000000000\n        /* \"#utility.yul\":2936:2937   */\n      0x00\n        /* \"#utility.yul\":2929:3017   */\n      mstore\n        /* \"#utility.yul\":3036:3040   */\n      0x32\n        /* \"#utility.yul\":3033:3034   */\n      0x04\n        /* \"#utility.yul\":3026:3041   */\n      mstore\n        /* \"#utility.yul\":3060:3064   */\n      0x24\n        /* \"#utility.yul\":3057:3058   */\n      0x00\n        /* \"#utility.yul\":3050:3065   */\n      revert\n        /* \"#utility.yul\":3077:3257   */\n    tag_121:\n        /* \"#utility.yul\":3125:3202   */\n      0x4e487b7100000000000000000000000000000000000000000000000000000000\n        /* \"#utility.yul\":3122:3123   */\n      0x00\n        /* \"#utility.yul\":3115:3203   */\n      mstore\n        /* \"#utility.yul\":3222:3226   */\n      0x11\n        /* \"#utility.yul\":3219:3220   */\n      0x04\n        /* \"#utility.yul\":3212:3227   */\n      mstore\n        /* \"#utility.yul\":3246:3250   */\n      0x24\n        /* \"#utility.yul\":3243:3244   */\n      0x00\n        /* \"#utility.yul\":3236:3251   */\n      revert\n        /* \"#utility.yul\":3263:3496   */\n    tag_57:\n        /* \"#utility.yul\":3302:3305   */\n      0x00\n        /* \"#utility.yul\":3325:3349   */\n      tag_160\n        /* \"#utility.yul\":3343:3348   */\n      dup3\n        /* \"#utility.yul\":3325:3349   */\n      tag_117\n      jump\t// in\n    tag_160:\n        /* \"#utility.yul\":3316:3349   */\n      swap2\n      pop\n        /* \"#utility.yul\":3371:3437   */\n      0xffffffffffffffffffffffffffffffffffffffffffffffffffffffffffffffff\n        /* \"#utility.yul\":3364:3369   */\n      dup3\n        /* \"#utility.yul\":3361:3438   */\n      sub\n        /* \"#utility.yul\":3358:3461   */\n      tag_161\n      jumpi\n        /* \"#utility.yul\":3441:3459   */\n      tag_162\n      tag_121\n      jump\t// in\n    tag_162:\n        /* \"#utility.yul\":3358:3461   */\n    tag_161:\n        /* \"#utility.yul\":3488:3489   */\n      0x01\n        /* \"#utility.yul\":3481:3486   */\n      dup3\n        /* \"#utility.yul\":3477:3490   */\n      add\n        /* \"#utility.yul\":3470:3490   */\n      swap1\n      pop\n        /* \"#utility.yul\":3263:3496   */\n      swap2\n      swap1\n      pop\n      jump\t// out\n        /* \"#utility.yul\":3502:3696   */\n    tag_63:\n        /* \"#utility.yul\":3542:3546   */\n      0x00\n        /* \"#utility.yul\":3562:3582   */\n      tag_164\n        /* \"#utility.yul\":3580:3581   */\n      dup3\n        /* \"#utility.yul\":3562:3582   */\n      tag_117\n      jump\t// in\n    tag_164:\n        /* \"#utility.yul\":3557:3582   */\n      swap2\n      pop\n        /* \"#utility.yul\":3596:3616   */\n      tag_165\n        /* \"#utility.yul\":3614:3615   */\n      dup4\n        /* \"#utility.yul\":3596:3616   */\n      tag_117\n      jump\t// in\n    tag_165:\n        /* \"#utility.yul\":3591:3616   */\n      swap3\n      pop\n        /* \"#utility.yul\":3640:3641   */\n      dup3\n        /* \"#utility.yul\":3637:3638   */\n      dup3\n        /* \"#utility.yul\":3633:3642   */\n      sub\n        /* \"#utility.yul\":3625:3642   */\n      swap1\n      pop\n        /* \"#utility.yul\":3664:3665   */\n      dup2\n        /* \"#utility.yul\":3658:3662   */\n      dup2\n        /* \"#utility.yul\":3655:3666   */\n      gt\n        /* \"#utility.yul\":3652:3689   */\n      iszero\n      tag_166\n      jumpi\n        /* \"#utility.yul\":3669:3687   */\n      tag_167\n      tag_121\n      jump\t// in\n    tag_167:\n        /* \"#utility.yul\":3652:3689   */\n    tag_166:\n        /* \"#utility.yul\":3502:3696   */\n      swap3\n      swap2\n      pop\n      pop\n      jump\t// out\n        /* \"#utility.yul\":3702:3882   */\n    tag_122:\n        /* \"#utility.yul\":3750:3827   */\n      0x4e487b7100000000000000000000000000000000000000000000000000000000\n        /* \"#utility.yul\":3747:3748   */\n      0x00\n        /* \"#utility.yul\":3740:3828   */\n      mstore\n        /* \"#utility.yul\":3847:3851   */\n      0x12\n        /* \"#utility.yul\":3844:3845   */\n      0x04\n        /* \"#utility.yul\":3837:3852   */\n      mstore\n        /* \"#utility.yul\":3871:3875   */\n      0x24\n        /* \"#utility.yul\":3868:3869   */\n      0x00\n        /* \"#utility.yul\":3861:3876   */\n      revert\n        /* \"#utility.yul\":3888:4073   */\n    tag_95:\n        /* \"#utility.yul\":3928:3929   */\n      0x00\n        /* \"#utility.yul\":3945:3965   */\n      tag_170\n        /* \"#utility.yul\":3963:3964   */\n      dup3\n        /* \"#utility.yul\":3945:3965   */\n      tag_117\n      jump\t// in\n    tag_170:\n        /* \"#utility.yul\":3940:3965   */\n      swap2\n      pop\n        /* \"#utility.yul\":3979:3999   */\n      tag_171\n        /* \"#utility.yul\":3997:3998   */\n      dup4\n        /* \"#utility.yul\":3979:3999   */\n      tag_117\n      jump\t// in\n    tag_171:\n        /* \"#utility.yul\":3974:3999   */\n      swap3\n      pop\n        /* \"#utility.yul\":4018:4019   */\n      dup3\n        /* \"#utility.yul\":4008:4043   */\n      tag_172\n      jumpi\n        /* \"#utility.yul\":4023:4041   */\n      tag_173\n      tag_122\n      jump\t// in\n    tag_173:\n        /* \"#utility.yul\":4008:4043   */\n    tag_172:\n        /* \"#utility.yul\":4065:4066   */\n      dup3\n        /* \"#utility.yul\":4062:4063   */\n      dup3\n        /* \"#utility.yul\":4058:4067   */\n      div\n        /* \"#utility.yul\":4053:4067   */\n      swap1\n      pop\n        /* \"#utility.yul\":3888:4073   */\n      swap3\n      swap2\n      pop\n      pop\n      jump\t// out\n        /* \"#utility.yul\":4079:4255   */\n    tag_97:\n        /* \"#utility.yul\":4111:4112   */\n      0x00\n        /* \"#utility.yul\":4128:4148   */\n      tag_175\n        /* \"#utility.yul\":4146:4147   */\n      dup3\n        /* \"#utility.yul\":4128:4148   */\n      tag_117\n      jump\t// in\n    tag_175:\n        /* \"#utility.yul\":4123:4148   */\n      swap2\n      pop\n        /* \"#utility.yul\":4162:4182   */\n      tag_176\n        /* \"#utility.yul\":4180:4181   */\n      dup4\n        /* \"#utility.yul\":4162:4182   */\n      tag_117\n      jump\t// in\n    tag_176:\n        /* \"#utility.yul\":4157:4182   */\n      swap3\n      pop\n        /* \"#utility.yul\":4201:4202   */\n      dup3\n        /* \"#utility.yul\":4191:4226   */\n      tag_177\n      jumpi\n        /* \"#utility.yul\":4206:4224   */\n      tag_178\n      tag_122\n      jump\t// in\n    tag_178:\n        /* \"#utility.yul\":4191:4226   */\n    tag_177:\n        /* \"#utility.yul\":4247:4248   */\n      dup3\n        /* \"#utility.yul\":4244:4245   */\n      dup3\n        /* \"#utility.yul\":4240:4249   */\n      mod\n        /* \"#utility.yul\":4235:4249   */\n      swap1\n      pop\n        /* \"#utility.yul\":4079:4255   */\n      swap3\n      swap2\n      pop\n      pop\n      jump\t// out\n\n    auxdata: 0xa264697066735822122092ec4d02a5c1011912c1d69b67cecb29af1f297ab001714a00364231390ced0b64736f6c63430008160033\n}\n",
				"bytecode": {
					"linkReferences": {},
					"object": "60806040525f6017553360165f6101000a81548173ffffffffffffffffffffffffffffffffffffffff021916908373ffffffffffffffffffffffffffffffffffffffff160217905550606060405180604001604052805f815260200182815250600d5f60038110610073576100726101b9565b5b600202015f820151815f0155602082015181600101908051906020019061009b929190610153565b5090505060405180604001604052806001815260200182815250600d6001600381106100ca576100c96101b9565b5b600202015f820151815f015560208201518160010190805190602001906100f2929190610153565b5090505060405180604001604052806002815260200182815250600d600260038110610121576101206101b9565b5b600202015f820151815f01556020820151816001019080519060200190610149929190610153565b50905050506101e6565b828054828255905f5260205f2090810192821561018d579160200282015b8281111561018c578251825591602001919060010190610171565b5b50905061019a919061019e565b5090565b5b808211156101b5575f815f90555060010161019f565b5090565b7f4e487b71000000000000000000000000000000000000000000000000000000005f52603260045260245ffd5b610aa680620001f45f395ff3fe60806040526004361061006f575f3560e01c8063609817051161004d57806360981705146100c3578063952587d614610101578063a2fb117514610117578063bfb231d2146101535761006f565b80631aa3a0081461007357806338af3eed1461007d578063598647f8146100a7575b5f80fd5b61007b61018f565b005b348015610088575f80fd5b50610091610319565b60405161009e91906107f9565b60405180910390f35b6100c160048036038101906100bc9190610849565b61033e565b005b3480156100ce575f80fd5b506100e960048036038101906100e49190610887565b61056c565b6040516100f8939291906108c1565b60405180910390f35b34801561010c575f80fd5b506101156105ee565b005b348015610122575f80fd5b5061013d60048036038101906101389190610887565b610765565b60405161014a91906107f9565b60405180910390f35b34801561015e575f80fd5b5061017960048036038101906101749190610887565b610799565b60405161018691906108f6565b60405180910390f35b6017546001601754600481106101a8576101a761090f565b5b6003020160010181905550336001601754600481106101ca576101c961090f565b5b600302016002015f6101000a81548173ffffffffffffffffffffffffffffffffffffffff021916908373ffffffffffffffffffffffffffffffffffffffff16021790555060056001601754600481106102265761022561090f565b5b600302015f01819055506001601754600481106102465761024561090f565b5b600302015f803373ffffffffffffffffffffffffffffffffffffffff1673ffffffffffffffffffffffffffffffffffffffff1681526020019081526020015f205f820154815f015560018201548160010155600282015f9054906101000a900473ffffffffffffffffffffffffffffffffffffffff16816002015f6101000a81548173ffffffffffffffffffffffffffffffffffffffff021916908373ffffffffffffffffffffffffffffffffffffffff16021790555090505060175f81548092919061031290610969565b9190505550565b60165f9054906101000a900473ffffffffffffffffffffffffffffffffffffffff1681565b805f803373ffffffffffffffffffffffffffffffffffffffff1673ffffffffffffffffffffffffffffffffffffffff1681526020019081526020015f205f01541015610388575f80fd5b5f805f3373ffffffffffffffffffffffffffffffffffffffff1673ffffffffffffffffffffffffffffffffffffffff1681526020019081526020015f205f0154116103d1575f80fd5b60028211156103de575f80fd5b5f815f803373ffffffffffffffffffffffffffffffffffffffff1673ffffffffffffffffffffffffffffffffffffffff1681526020019081526020015f205f015461042991906109b0565b9050805f803373ffffffffffffffffffffffffffffffffffffffff1673ffffffffffffffffffffffffffffffffffffffff1681526020019081526020015f205f01819055508060015f803373ffffffffffffffffffffffffffffffffffffffff1673ffffffffffffffffffffffffffffffffffffffff1681526020019081526020015f2060010154600481106104c2576104c161090f565b5b600302015f01819055505f600d84600381106104e1576104e061090f565b5b6002020190505f5b8381101561056557816001015f803373ffffffffffffffffffffffffffffffffffffffff1673ffffffffffffffffffffffffffffffffffffffff1681526020019081526020015f2060010154908060018154018082558091505060019003905f5260205f20015f909190919091505580806001019150506104e9565b5050505050565b5f805f600184600481106105835761058261090f565b5b600302015f01546001856004811061059e5761059d61090f565b5b6003020160010154600186600481106105ba576105b961090f565b5b600302016002015f9054906101000a900473ffffffffffffffffffffffffffffffffffffffff169250925092509193909250565b60165f9054906101000a900473ffffffffffffffffffffffffffffffffffffffff1673ffffffffffffffffffffffffffffffffffffffff163373ffffffffffffffffffffffffffffffffffffffff1614610646575f80fd5b5f5b6003811015610762575f600d82600381106106665761066561090f565b5b6002020190505f816001018054905014610754575f81600101805490508260010180549050436106969190610a10565b6106a09190610a40565b90505f8260010182815481106106b9576106b861090f565b5b905f5260205f2001549050600181600481106106d8576106d761090f565b5b600302016002015f9054906101000a900473ffffffffffffffffffffffffffffffffffffffff16601385600381106107135761071261090f565b5b015f6101000a81548173ffffffffffffffffffffffffffffffffffffffff021916908373ffffffffffffffffffffffffffffffffffffffff16021790555050505b508080600101915050610648565b50565b60138160038110610774575f80fd5b015f915054906101000a900473ffffffffffffffffffffffffffffffffffffffff1681565b600d81600381106107a8575f80fd5b600202015f91509050805f0154905081565b5f73ffffffffffffffffffffffffffffffffffffffff82169050919050565b5f6107e3826107ba565b9050919050565b6107f3816107d9565b82525050565b5f60208201905061080c5f8301846107ea565b92915050565b5f80fd5b5f819050919050565b61082881610816565b8114610832575f80fd5b50565b5f813590506108438161081f565b92915050565b5f806040838503121561085f5761085e610812565b5b5f61086c85828601610835565b925050602061087d85828601610835565b9150509250929050565b5f6020828403121561089c5761089b610812565b5b5f6108a984828501610835565b91505092915050565b6108bb81610816565b82525050565b5f6060820190506108d45f8301866108b2565b6108e160208301856108b2565b6108ee60408301846107ea565b949350505050565b5f6020820190506109095f8301846108b2565b92915050565b7f4e487b71000000000000000000000000000000000000000000000000000000005f52603260045260245ffd5b7f4e487b71000000000000000000000000000000000000000000000000000000005f52601160045260245ffd5b5f61097382610816565b91507fffffffffffffffffffffffffffffffffffffffffffffffffffffffffffffffff82036109a5576109a461093c565b5b600182019050919050565b5f6109ba82610816565b91506109c583610816565b92508282039050818111156109dd576109dc61093c565b5b92915050565b7f4e487b71000000000000000000000000000000000000000000000000000000005f52601260045260245ffd5b5f610a1a82610816565b9150610a2583610816565b925082610a3557610a346109e3565b5b828204905092915050565b5f610a4a82610816565b9150610a5583610816565b925082610a6557610a646109e3565b5b82820690509291505056fea264697066735822122092ec4d02a5c1011912c1d69b67cecb29af1f297ab001714a00364231390ced0b64736f6c63430008160033",
					"opcodes": "PUSH1 0x80 PUSH1 0x40 MSTORE PUSH0 PUSH1 0x17 SSTORE CALLER PUSH1 0x16 PUSH0 PUSH2 0x100 EXP DUP2 SLOAD DUP2 PUSH20 0xFFFFFFFFFFFFFFFFFFFFFFFFFFFFFFFFFFFFFFFF MUL NOT AND SWAP1 DUP4 PUSH20 0xFFFFFFFFFFFFFFFFFFFFFFFFFFFFFFFFFFFFFFFF AND MUL OR SWAP1 SSTORE POP PUSH1 0x60 PUSH1 0x40 MLOAD DUP1 PUSH1 0x40 ADD PUSH1 0x40 MSTORE DUP1 PUSH0 DUP2 MSTORE PUSH1 0x20 ADD DUP3 DUP2 MSTORE POP PUSH1 0xD PUSH0 PUSH1 0x3 DUP2 LT PUSH2 0x73 JUMPI PUSH2 0x72 PUSH2 0x1B9 JUMP JUMPDEST JUMPDEST PUSH1 0x2 MUL ADD PUSH0 DUP3 ADD MLOAD DUP2 PUSH0 ADD SSTORE PUSH1 0x20 DUP3 ADD MLOAD DUP2 PUSH1 0x1 ADD SWAP1 DUP1 MLOAD SWAP1 PUSH1 0x20 ADD SWAP1 PUSH2 0x9B SWAP3 SWAP2 SWAP1 PUSH2 0x153 JUMP JUMPDEST POP SWAP1 POP POP PUSH1 0x40 MLOAD DUP1 PUSH1 0x40 ADD PUSH1 0x40 MSTORE DUP1 PUSH1 0x1 DUP2 MSTORE PUSH1 0x20 ADD DUP3 DUP2 MSTORE POP PUSH1 0xD PUSH1 0x1 PUSH1 0x3 DUP2 LT PUSH2 0xCA JUMPI PUSH2 0xC9 PUSH2 0x1B9 JUMP JUMPDEST JUMPDEST PUSH1 0x2 MUL ADD PUSH0 DUP3 ADD MLOAD DUP2 PUSH0 ADD SSTORE PUSH1 0x20 DUP3 ADD MLOAD DUP2 PUSH1 0x1 ADD SWAP1 DUP1 MLOAD SWAP1 PUSH1 0x20 ADD SWAP1 PUSH2 0xF2 SWAP3 SWAP2 SWAP1 PUSH2 0x153 JUMP JUMPDEST POP SWAP1 POP POP PUSH1 0x40 MLOAD DUP1 PUSH1 0x40 ADD PUSH1 0x40 MSTORE DUP1 PUSH1 0x2 DUP2 MSTORE PUSH1 0x20 ADD DUP3 DUP2 MSTORE POP PUSH1 0xD PUSH1 0x2 PUSH1 0x3 DUP2 LT PUSH2 0x121 JUMPI PUSH2 0x120 PUSH2 0x1B9 JUMP JUMPDEST JUMPDEST PUSH1 0x2 MUL ADD PUSH0 DUP3 ADD MLOAD DUP2 PUSH0 ADD SSTORE PUSH1 0x20 DUP3 ADD MLOAD DUP2 PUSH1 0x1 ADD SWAP1 DUP1 MLOAD SWAP1 PUSH1 0x20 ADD SWAP1 PUSH2 0x149 SWAP3 SWAP2 SWAP1 PUSH2 0x153 JUMP JUMPDEST POP SWAP1 POP POP POP PUSH2 0x1E6 JUMP JUMPDEST DUP3 DUP1 SLOAD DUP3 DUP3 SSTORE SWAP1 PUSH0 MSTORE PUSH1 0x20 PUSH0 KECCAK256 SWAP1 DUP2 ADD SWAP3 DUP3 ISZERO PUSH2 0x18D JUMPI SWAP2 PUSH1 0x20 MUL DUP3 ADD JUMPDEST DUP3 DUP2 GT ISZERO PUSH2 0x18C JUMPI DUP3 MLOAD DUP3 SSTORE SWAP2 PUSH1 0x20 ADD SWAP2 SWAP1 PUSH1 0x1 ADD SWAP1 PUSH2 0x171 JUMP JUMPDEST JUMPDEST POP SWAP1 POP PUSH2 0x19A SWAP2 SWAP1 PUSH2 0x19E JUMP JUMPDEST POP SWAP1 JUMP JUMPDEST JUMPDEST DUP1 DUP3 GT ISZERO PUSH2 0x1B5 JUMPI PUSH0 DUP2 PUSH0 SWAP1 SSTORE POP PUSH1 0x1 ADD PUSH2 0x19F JUMP JUMPDEST POP SWAP1 JUMP JUMPDEST PUSH32 0x4E487B7100000000000000000000000000000000000000000000000000000000 PUSH0 MSTORE PUSH1 0x32 PUSH1 0x4 MSTORE PUSH1 0x24 PUSH0 REVERT JUMPDEST PUSH2 0xAA6 DUP1 PUSH3 0x1F4 PUSH0 CODECOPY PUSH0 RETURN INVALID PUSH1 0x80 PUSH1 0x40 MSTORE PUSH1 0x4 CALLDATASIZE LT PUSH2 0x6F JUMPI PUSH0 CALLDATALOAD PUSH1 0xE0 SHR DUP1 PUSH4 0x60981705 GT PUSH2 0x4D JUMPI DUP1 PUSH4 0x60981705 EQ PUSH2 0xC3 JUMPI DUP1 PUSH4 0x952587D6 EQ PUSH2 0x101 JUMPI DUP1 PUSH4 0xA2FB1175 EQ PUSH2 0x117 JUMPI DUP1 PUSH4 0xBFB231D2 EQ PUSH2 0x153 JUMPI PUSH2 0x6F JUMP JUMPDEST DUP1 PUSH4 0x1AA3A008 EQ PUSH2 0x73 JUMPI DUP1 PUSH4 0x38AF3EED EQ PUSH2 0x7D JUMPI DUP1 PUSH4 0x598647F8 EQ PUSH2 0xA7 JUMPI JUMPDEST PUSH0 DUP1 REVERT JUMPDEST PUSH2 0x7B PUSH2 0x18F JUMP JUMPDEST STOP JUMPDEST CALLVALUE DUP1 ISZERO PUSH2 0x88 JUMPI PUSH0 DUP1 REVERT JUMPDEST POP PUSH2 0x91 PUSH2 0x319 JUMP JUMPDEST PUSH1 0x40 MLOAD PUSH2 0x9E SWAP2 SWAP1 PUSH2 0x7F9 JUMP JUMPDEST PUSH1 0x40 MLOAD DUP1 SWAP2 SUB SWAP1 RETURN JUMPDEST PUSH2 0xC1 PUSH1 0x4 DUP1 CALLDATASIZE SUB DUP2 ADD SWAP1 PUSH2 0xBC SWAP2 SWAP1 PUSH2 0x849 JUMP JUMPDEST PUSH2 0x33E JUMP JUMPDEST STOP JUMPDEST CALLVALUE DUP1 ISZERO PUSH2 0xCE JUMPI PUSH0 DUP1 REVERT JUMPDEST POP PUSH2 0xE9 PUSH1 0x4 DUP1 CALLDATASIZE SUB DUP2 ADD SWAP1 PUSH2 0xE4 SWAP2 SWAP1 PUSH2 0x887 JUMP JUMPDEST PUSH2 0x56C JUMP JUMPDEST PUSH1 0x40 MLOAD PUSH2 0xF8 SWAP4 SWAP3 SWAP2 SWAP1 PUSH2 0x8C1 JUMP JUMPDEST PUSH1 0x40 MLOAD DUP1 SWAP2 SUB SWAP1 RETURN JUMPDEST CALLVALUE DUP1 ISZERO PUSH2 0x10C JUMPI PUSH0 DUP1 REVERT JUMPDEST POP PUSH2 0x115 PUSH2 0x5EE JUMP JUMPDEST STOP JUMPDEST CALLVALUE DUP1 ISZERO PUSH2 0x122 JUMPI PUSH0 DUP1 REVERT JUMPDEST POP PUSH2 0x13D PUSH1 0x4 DUP1 CALLDATASIZE SUB DUP2 ADD SWAP1 PUSH2 0x138 SWAP2 SWAP1 PUSH2 0x887 JUMP JUMPDEST PUSH2 0x765 JUMP JUMPDEST PUSH1 0x40 MLOAD PUSH2 0x14A SWAP2 SWAP1 PUSH2 0x7F9 JUMP JUMPDEST PUSH1 0x40 MLOAD DUP1 SWAP2 SUB SWAP1 RETURN JUMPDEST CALLVALUE DUP1 ISZERO PUSH2 0x15E JUMPI PUSH0 DUP1 REVERT JUMPDEST POP PUSH2 0x179 PUSH1 0x4 DUP1 CALLDATASIZE SUB DUP2 ADD SWAP1 PUSH2 0x174 SWAP2 SWAP1 PUSH2 0x887 JUMP JUMPDEST PUSH2 0x799 JUMP JUMPDEST PUSH1 0x40 MLOAD PUSH2 0x186 SWAP2 SWAP1 PUSH2 0x8F6 JUMP JUMPDEST PUSH1 0x40 MLOAD DUP1 SWAP2 SUB SWAP1 RETURN JUMPDEST PUSH1 0x17 SLOAD PUSH1 0x1 PUSH1 0x17 SLOAD PUSH1 0x4 DUP2 LT PUSH2 0x1A8 JUMPI PUSH2 0x1A7 PUSH2 0x90F JUMP JUMPDEST JUMPDEST PUSH1 0x3 MUL ADD PUSH1 0x1 ADD DUP2 SWAP1 SSTORE POP CALLER PUSH1 0x1 PUSH1 0x17 SLOAD PUSH1 0x4 DUP2 LT PUSH2 0x1CA JUMPI PUSH2 0x1C9 PUSH2 0x90F JUMP JUMPDEST JUMPDEST PUSH1 0x3 MUL ADD PUSH1 0x2 ADD PUSH0 PUSH2 0x100 EXP DUP2 SLOAD DUP2 PUSH20 0xFFFFFFFFFFFFFFFFFFFFFFFFFFFFFFFFFFFFFFFF MUL NOT AND SWAP1 DUP4 PUSH20 0xFFFFFFFFFFFFFFFFFFFFFFFFFFFFFFFFFFFFFFFF AND MUL OR SWAP1 SSTORE POP PUSH1 0x5 PUSH1 0x1 PUSH1 0x17 SLOAD PUSH1 0x4 DUP2 LT PUSH2 0x226 JUMPI PUSH2 0x225 PUSH2 0x90F JUMP JUMPDEST JUMPDEST PUSH1 0x3 MUL ADD PUSH0 ADD DUP2 SWAP1 SSTORE POP PUSH1 0x1 PUSH1 0x17 SLOAD PUSH1 0x4 DUP2 LT PUSH2 0x246 JUMPI PUSH2 0x245 PUSH2 0x90F JUMP JUMPDEST JUMPDEST PUSH1 0x3 MUL ADD PUSH0 DUP1 CALLER PUSH20 0xFFFFFFFFFFFFFFFFFFFFFFFFFFFFFFFFFFFFFFFF AND PUSH20 0xFFFFFFFFFFFFFFFFFFFFFFFFFFFFFFFFFFFFFFFF AND DUP2 MSTORE PUSH1 0x20 ADD SWAP1 DUP2 MSTORE PUSH1 0x20 ADD PUSH0 KECCAK256 PUSH0 DUP3 ADD SLOAD DUP2 PUSH0 ADD SSTORE PUSH1 0x1 DUP3 ADD SLOAD DUP2 PUSH1 0x1 ADD SSTORE PUSH1 0x2 DUP3 ADD PUSH0 SWAP1 SLOAD SWAP1 PUSH2 0x100 EXP SWAP1 DIV PUSH20 0xFFFFFFFFFFFFFFFFFFFFFFFFFFFFFFFFFFFFFFFF AND DUP2 PUSH1 0x2 ADD PUSH0 PUSH2 0x100 EXP DUP2 SLOAD DUP2 PUSH20 0xFFFFFFFFFFFFFFFFFFFFFFFFFFFFFFFFFFFFFFFF MUL NOT AND SWAP1 DUP4 PUSH20 0xFFFFFFFFFFFFFFFFFFFFFFFFFFFFFFFFFFFFFFFF AND MUL OR SWAP1 SSTORE POP SWAP1 POP POP PUSH1 0x17 PUSH0 DUP2 SLOAD DUP1 SWAP3 SWAP2 SWAP1 PUSH2 0x312 SWAP1 PUSH2 0x969 JUMP JUMPDEST SWAP2 SWAP1 POP SSTORE POP JUMP JUMPDEST PUSH1 0x16 PUSH0 SWAP1 SLOAD SWAP1 PUSH2 0x100 EXP SWAP1 DIV PUSH20 0xFFFFFFFFFFFFFFFFFFFFFFFFFFFFFFFFFFFFFFFF AND DUP2 JUMP JUMPDEST DUP1 PUSH0 DUP1 CALLER PUSH20 0xFFFFFFFFFFFFFFFFFFFFFFFFFFFFFFFFFFFFFFFF AND PUSH20 0xFFFFFFFFFFFFFFFFFFFFFFFFFFFFFFFFFFFFFFFF AND DUP2 MSTORE PUSH1 0x20 ADD SWAP1 DUP2 MSTORE PUSH1 0x20 ADD PUSH0 KECCAK256 PUSH0 ADD SLOAD LT ISZERO PUSH2 0x388 JUMPI PUSH0 DUP1 REVERT JUMPDEST PUSH0 DUP1 PUSH0 CALLER PUSH20 0xFFFFFFFFFFFFFFFFFFFFFFFFFFFFFFFFFFFFFFFF AND PUSH20 0xFFFFFFFFFFFFFFFFFFFFFFFFFFFFFFFFFFFFFFFF AND DUP2 MSTORE PUSH1 0x20 ADD SWAP1 DUP2 MSTORE PUSH1 0x20 ADD PUSH0 KECCAK256 PUSH0 ADD SLOAD GT PUSH2 0x3D1 JUMPI PUSH0 DUP1 REVERT JUMPDEST PUSH1 0x2 DUP3 GT ISZERO PUSH2 0x3DE JUMPI PUSH0 DUP1 REVERT JUMPDEST PUSH0 DUP2 PUSH0 DUP1 CALLER PUSH20 0xFFFFFFFFFFFFFFFFFFFFFFFFFFFFFFFFFFFFFFFF AND PUSH20 0xFFFFFFFFFFFFFFFFFFFFFFFFFFFFFFFFFFFFFFFF AND DUP2 MSTORE PUSH1 0x20 ADD SWAP1 DUP2 MSTORE PUSH1 0x20 ADD PUSH0 KECCAK256 PUSH0 ADD SLOAD PUSH2 0x429 SWAP2 SWAP1 PUSH2 0x9B0 JUMP JUMPDEST SWAP1 POP DUP1 PUSH0 DUP1 CALLER PUSH20 0xFFFFFFFFFFFFFFFFFFFFFFFFFFFFFFFFFFFFFFFF AND PUSH20 0xFFFFFFFFFFFFFFFFFFFFFFFFFFFFFFFFFFFFFFFF AND DUP2 MSTORE PUSH1 0x20 ADD SWAP1 DUP2 MSTORE PUSH1 0x20 ADD PUSH0 KECCAK256 PUSH0 ADD DUP2 SWAP1 SSTORE POP DUP1 PUSH1 0x1 PUSH0 DUP1 CALLER PUSH20 0xFFFFFFFFFFFFFFFFFFFFFFFFFFFFFFFFFFFFFFFF AND PUSH20 0xFFFFFFFFFFFFFFFFFFFFFFFFFFFFFFFFFFFFFFFF AND DUP2 MSTORE PUSH1 0x20 ADD SWAP1 DUP2 MSTORE PUSH1 0x20 ADD PUSH0 KECCAK256 PUSH1 0x1 ADD SLOAD PUSH1 0x4 DUP2 LT PUSH2 0x4C2 JUMPI PUSH2 0x4C1 PUSH2 0x90F JUMP JUMPDEST JUMPDEST PUSH1 0x3 MUL ADD PUSH0 ADD DUP2 SWAP1 SSTORE POP PUSH0 PUSH1 0xD DUP5 PUSH1 0x3 DUP2 LT PUSH2 0x4E1 JUMPI PUSH2 0x4E0 PUSH2 0x90F JUMP JUMPDEST JUMPDEST PUSH1 0x2 MUL ADD SWAP1 POP PUSH0 JUMPDEST DUP4 DUP2 LT ISZERO PUSH2 0x565 JUMPI DUP2 PUSH1 0x1 ADD PUSH0 DUP1 CALLER PUSH20 0xFFFFFFFFFFFFFFFFFFFFFFFFFFFFFFFFFFFFFFFF AND PUSH20 0xFFFFFFFFFFFFFFFFFFFFFFFFFFFFFFFFFFFFFFFF AND DUP2 MSTORE PUSH1 0x20 ADD SWAP1 DUP2 MSTORE PUSH1 0x20 ADD PUSH0 KECCAK256 PUSH1 0x1 ADD SLOAD SWAP1 DUP1 PUSH1 0x1 DUP2 SLOAD ADD DUP1 DUP3 SSTORE DUP1 SWAP2 POP POP PUSH1 0x1 SWAP1 SUB SWAP1 PUSH0 MSTORE PUSH1 0x20 PUSH0 KECCAK256 ADD PUSH0 SWAP1 SWAP2 SWAP1 SWAP2 SWAP1 SWAP2 POP SSTORE DUP1 DUP1 PUSH1 0x1 ADD SWAP2 POP POP PUSH2 0x4E9 JUMP JUMPDEST POP POP POP POP POP JUMP JUMPDEST PUSH0 DUP1 PUSH0 PUSH1 0x1 DUP5 PUSH1 0x4 DUP2 LT PUSH2 0x583 JUMPI PUSH2 0x582 PUSH2 0x90F JUMP JUMPDEST JUMPDEST PUSH1 0x3 MUL ADD PUSH0 ADD SLOAD PUSH1 0x1 DUP6 PUSH1 0x4 DUP2 LT PUSH2 0x59E JUMPI PUSH2 0x59D PUSH2 0x90F JUMP JUMPDEST JUMPDEST PUSH1 0x3 MUL ADD PUSH1 0x1 ADD SLOAD PUSH1 0x1 DUP7 PUSH1 0x4 DUP2 LT PUSH2 0x5BA JUMPI PUSH2 0x5B9 PUSH2 0x90F JUMP JUMPDEST JUMPDEST PUSH1 0x3 MUL ADD PUSH1 0x2 ADD PUSH0 SWAP1 SLOAD SWAP1 PUSH2 0x100 EXP SWAP1 DIV PUSH20 0xFFFFFFFFFFFFFFFFFFFFFFFFFFFFFFFFFFFFFFFF AND SWAP3 POP SWAP3 POP SWAP3 POP SWAP2 SWAP4 SWAP1 SWAP3 POP JUMP JUMPDEST PUSH1 0x16 PUSH0 SWAP1 SLOAD SWAP1 PUSH2 0x100 EXP SWAP1 DIV PUSH20 0xFFFFFFFFFFFFFFFFFFFFFFFFFFFFFFFFFFFFFFFF AND PUSH20 0xFFFFFFFFFFFFFFFFFFFFFFFFFFFFFFFFFFFFFFFF AND CALLER PUSH20 0xFFFFFFFFFFFFFFFFFFFFFFFFFFFFFFFFFFFFFFFF AND EQ PUSH2 0x646 JUMPI PUSH0 DUP1 REVERT JUMPDEST PUSH0 JUMPDEST PUSH1 0x3 DUP2 LT ISZERO PUSH2 0x762 JUMPI PUSH0 PUSH1 0xD DUP3 PUSH1 0x3 DUP2 LT PUSH2 0x666 JUMPI PUSH2 0x665 PUSH2 0x90F JUMP JUMPDEST JUMPDEST PUSH1 0x2 MUL ADD SWAP1 POP PUSH0 DUP2 PUSH1 0x1 ADD DUP1 SLOAD SWAP1 POP EQ PUSH2 0x754 JUMPI PUSH0 DUP2 PUSH1 0x1 ADD DUP1 SLOAD SWAP1 POP DUP3 PUSH1 0x1 ADD DUP1 SLOAD SWAP1 POP NUMBER PUSH2 0x696 SWAP2 SWAP1 PUSH2 0xA10 JUMP JUMPDEST PUSH2 0x6A0 SWAP2 SWAP1 PUSH2 0xA40 JUMP JUMPDEST SWAP1 POP PUSH0 DUP3 PUSH1 0x1 ADD DUP3 DUP2 SLOAD DUP2 LT PUSH2 0x6B9 JUMPI PUSH2 0x6B8 PUSH2 0x90F JUMP JUMPDEST JUMPDEST SWAP1 PUSH0 MSTORE PUSH1 0x20 PUSH0 KECCAK256 ADD SLOAD SWAP1 POP PUSH1 0x1 DUP2 PUSH1 0x4 DUP2 LT PUSH2 0x6D8 JUMPI PUSH2 0x6D7 PUSH2 0x90F JUMP JUMPDEST JUMPDEST PUSH1 0x3 MUL ADD PUSH1 0x2 ADD PUSH0 SWAP1 SLOAD SWAP1 PUSH2 0x100 EXP SWAP1 DIV PUSH20 0xFFFFFFFFFFFFFFFFFFFFFFFFFFFFFFFFFFFFFFFF AND PUSH1 0x13 DUP6 PUSH1 0x3 DUP2 LT PUSH2 0x713 JUMPI PUSH2 0x712 PUSH2 0x90F JUMP JUMPDEST JUMPDEST ADD PUSH0 PUSH2 0x100 EXP DUP2 SLOAD DUP2 PUSH20 0xFFFFFFFFFFFFFFFFFFFFFFFFFFFFFFFFFFFFFFFF MUL NOT AND SWAP1 DUP4 PUSH20 0xFFFFFFFFFFFFFFFFFFFFFFFFFFFFFFFFFFFFFFFF AND MUL OR SWAP1 SSTORE POP POP POP JUMPDEST POP DUP1 DUP1 PUSH1 0x1 ADD SWAP2 POP POP PUSH2 0x648 JUMP JUMPDEST POP JUMP JUMPDEST PUSH1 0x13 DUP2 PUSH1 0x3 DUP2 LT PUSH2 0x774 JUMPI PUSH0 DUP1 REVERT JUMPDEST ADD PUSH0 SWAP2 POP SLOAD SWAP1 PUSH2 0x100 EXP SWAP1 DIV PUSH20 0xFFFFFFFFFFFFFFFFFFFFFFFFFFFFFFFFFFFFFFFF AND DUP2 JUMP JUMPDEST PUSH1 0xD DUP2 PUSH1 0x3 DUP2 LT PUSH2 0x7A8 JUMPI PUSH0 DUP1 REVERT JUMPDEST PUSH1 0x2 MUL ADD PUSH0 SWAP2 POP SWAP1 POP DUP1 PUSH0 ADD SLOAD SWAP1 POP DUP2 JUMP JUMPDEST PUSH0 PUSH20 0xFFFFFFFFFFFFFFFFFFFFFFFFFFFFFFFFFFFFFFFF DUP3 AND SWAP1 POP SWAP2 SWAP1 POP JUMP JUMPDEST PUSH0 PUSH2 0x7E3 DUP3 PUSH2 0x7BA JUMP JUMPDEST SWAP1 POP SWAP2 SWAP1 POP JUMP JUMPDEST PUSH2 0x7F3 DUP2 PUSH2 0x7D9 JUMP JUMPDEST DUP3 MSTORE POP POP JUMP JUMPDEST PUSH0 PUSH1 0x20 DUP3 ADD SWAP1 POP PUSH2 0x80C PUSH0 DUP4 ADD DUP5 PUSH2 0x7EA JUMP JUMPDEST SWAP3 SWAP2 POP POP JUMP JUMPDEST PUSH0 DUP1 REVERT JUMPDEST PUSH0 DUP2 SWAP1 POP SWAP2 SWAP1 POP JUMP JUMPDEST PUSH2 0x828 DUP2 PUSH2 0x816 JUMP JUMPDEST DUP2 EQ PUSH2 0x832 JUMPI PUSH0 DUP1 REVERT JUMPDEST POP JUMP JUMPDEST PUSH0 DUP2 CALLDATALOAD SWAP1 POP PUSH2 0x843 DUP2 PUSH2 0x81F JUMP JUMPDEST SWAP3 SWAP2 POP POP JUMP JUMPDEST PUSH0 DUP1 PUSH1 0x40 DUP4 DUP6 SUB SLT ISZERO PUSH2 0x85F JUMPI PUSH2 0x85E PUSH2 0x812 JUMP JUMPDEST JUMPDEST PUSH0 PUSH2 0x86C DUP6 DUP3 DUP7 ADD PUSH2 0x835 JUMP JUMPDEST SWAP3 POP POP PUSH1 0x20 PUSH2 0x87D DUP6 DUP3 DUP7 ADD PUSH2 0x835 JUMP JUMPDEST SWAP2 POP POP SWAP3 POP SWAP3 SWAP1 POP JUMP JUMPDEST PUSH0 PUSH1 0x20 DUP3 DUP5 SUB SLT ISZERO PUSH2 0x89C JUMPI PUSH2 0x89B PUSH2 0x812 JUMP JUMPDEST JUMPDEST PUSH0 PUSH2 0x8A9 DUP5 DUP3 DUP6 ADD PUSH2 0x835 JUMP JUMPDEST SWAP2 POP POP SWAP3 SWAP2 POP POP JUMP JUMPDEST PUSH2 0x8BB DUP2 PUSH2 0x816 JUMP JUMPDEST DUP3 MSTORE POP POP JUMP JUMPDEST PUSH0 PUSH1 0x60 DUP3 ADD SWAP1 POP PUSH2 0x8D4 PUSH0 DUP4 ADD DUP7 PUSH2 0x8B2 JUMP JUMPDEST PUSH2 0x8E1 PUSH1 0x20 DUP4 ADD DUP6 PUSH2 0x8B2 JUMP JUMPDEST PUSH2 0x8EE PUSH1 0x40 DUP4 ADD DUP5 PUSH2 0x7EA JUMP JUMPDEST SWAP5 SWAP4 POP POP POP POP JUMP JUMPDEST PUSH0 PUSH1 0x20 DUP3 ADD SWAP1 POP PUSH2 0x909 PUSH0 DUP4 ADD DUP5 PUSH2 0x8B2 JUMP JUMPDEST SWAP3 SWAP2 POP POP JUMP JUMPDEST PUSH32 0x4E487B7100000000000000000000000000000000000000000000000000000000 PUSH0 MSTORE PUSH1 0x32 PUSH1 0x4 MSTORE PUSH1 0x24 PUSH0 REVERT JUMPDEST PUSH32 0x4E487B7100000000000000000000000000000000000000000000000000000000 PUSH0 MSTORE PUSH1 0x11 PUSH1 0x4 MSTORE PUSH1 0x24 PUSH0 REVERT JUMPDEST PUSH0 PUSH2 0x973 DUP3 PUSH2 0x816 JUMP JUMPDEST SWAP2 POP PUSH32 0xFFFFFFFFFFFFFFFFFFFFFFFFFFFFFFFFFFFFFFFFFFFFFFFFFFFFFFFFFFFFFFFF DUP3 SUB PUSH2 0x9A5 JUMPI PUSH2 0x9A4 PUSH2 0x93C JUMP JUMPDEST JUMPDEST PUSH1 0x1 DUP3 ADD SWAP1 POP SWAP2 SWAP1 POP JUMP JUMPDEST PUSH0 PUSH2 0x9BA DUP3 PUSH2 0x816 JUMP JUMPDEST SWAP2 POP PUSH2 0x9C5 DUP4 PUSH2 0x816 JUMP JUMPDEST SWAP3 POP DUP3 DUP3 SUB SWAP1 POP DUP2 DUP2 GT ISZERO PUSH2 0x9DD JUMPI PUSH2 0x9DC PUSH2 0x93C JUMP JUMPDEST JUMPDEST SWAP3 SWAP2 POP POP JUMP JUMPDEST PUSH32 0x4E487B7100000000000000000000000000000000000000000000000000000000 PUSH0 MSTORE PUSH1 0x12 PUSH1 0x4 MSTORE PUSH1 0x24 PUSH0 REVERT JUMPDEST PUSH0 PUSH2 0xA1A DUP3 PUSH2 0x816 JUMP JUMPDEST SWAP2 POP PUSH2 0xA25 DUP4 PUSH2 0x816 JUMP JUMPDEST SWAP3 POP DUP3 PUSH2 0xA35 JUMPI PUSH2 0xA34 PUSH2 0x9E3 JUMP JUMPDEST JUMPDEST DUP3 DUP3 DIV SWAP1 POP SWAP3 SWAP2 POP POP JUMP JUMPDEST PUSH0 PUSH2 0xA4A DUP3 PUSH2 0x816 JUMP JUMPDEST SWAP2 POP PUSH2 0xA55 DUP4 PUSH2 0x816 JUMP JUMPDEST SWAP3 POP DUP3 PUSH2 0xA65 JUMPI PUSH2 0xA64 PUSH2 0x9E3 JUMP JUMPDEST JUMPDEST DUP3 DUP3 MOD SWAP1 POP SWAP3 SWAP2 POP POP JUMP INVALID LOG2 PUSH5 0x6970667358 0x22 SLT KECCAK256 SWAP3 0xEC 0x4D MUL 0xA5 0xC1 ADD NOT SLT 0xC1 0xD6 SWAP12 PUSH8 0xCECB29AF1F297AB0 ADD PUSH18 0x4A00364231390CED0B64736F6C6343000816 STOP CALLER "
				},
				"gasEstimates": {
					"creation": {
						"codeDepositCost": "545200",
						"executionCost": "infinite",
						"totalCost": "infinite"
					},
					"external": {
						"beneficiary()": "2531",
						"bid(uint256,uint256)": "infinite",
						"getPersonDetails(uint256)": "infinite",
						"items(uint256)": "infinite",
						"register()": "178579",
						"revealWinners()": "infinite",
						"winners(uint256)": "2839"
					}
				},
				"methodIdentifiers": {
					"beneficiary()": "38af3eed",
					"bid(uint256,uint256)": "598647f8",
					"getPersonDetails(uint256)": "60981705",
					"items(uint256)": "bfb231d2",
					"register()": "1aa3a008",
					"revealWinners()": "952587d6",
					"winners(uint256)": "a2fb1175"
				}
			},
			"storageLayout": {
				"storage": [
					{
						"astId": 19,
						"contract": "contracts/Auction.sol:Auction",
						"label": "tokenDetails",
						"offset": 0,
						"slot": "0",
						"type": "t_mapping(t_address,t_struct(Person)14_storage)"
					},
					{
						"astId": 24,
						"contract": "contracts/Auction.sol:Auction",
						"label": "bidders",
						"offset": 0,
						"slot": "1",
						"type": "t_array(t_struct(Person)14_storage)4_storage"
					},
					{
						"astId": 29,
						"contract": "contracts/Auction.sol:Auction",
						"label": "items",
						"offset": 0,
						"slot": "13",
						"type": "t_array(t_struct(Item)7_storage)3_storage"
					},
					{
						"astId": 33,
						"contract": "contracts/Auction.sol:Auction",
						"label": "winners",
						"offset": 0,
						"slot": "19",
						"type": "t_array(t_address)3_storage"
					},
					{
						"astId": 35,
						"contract": "contracts/Auction.sol:Auction",
						"label": "beneficiary",
						"offset": 0,
						"slot": "22",
						"type": "t_address"
					},
					{
						"astId": 38,
						"contract": "contracts/Auction.sol:Auction",
						"label": "bidderCount",
						"offset": 0,
						"slot": "23",
						"type": "t_uint256"
					}
				],
				"types": {
					"t_address": {
						"encoding": "inplace",
						"label": "address",
						"numberOfBytes": "20"
					},
					"t_array(t_address)3_storage": {
						"base": "t_address",
						"encoding": "inplace",
						"label": "address[3]",
						"numberOfBytes": "96"
					},
					"t_array(t_struct(Item)7_storage)3_storage": {
						"base": "t_struct(Item)7_storage",
						"encoding": "inplace",
						"label": "struct Auction.Item[3]",
						"numberOfBytes": "192"
					},
					"t_array(t_struct(Person)14_storage)4_storage": {
						"base": "t_struct(Person)14_storage",
						"encoding": "inplace",
						"label": "struct Auction.Person[4]",
						"numberOfBytes": "384"
					},
					"t_array(t_uint256)dyn_storage": {
						"base": "t_uint256",
						"encoding": "dynamic_array",
						"label": "uint256[]",
						"numberOfBytes": "32"
					},
					"t_mapping(t_address,t_struct(Person)14_storage)": {
						"encoding": "mapping",
						"key": "t_address",
						"label": "mapping(address => struct Auction.Person)",
						"numberOfBytes": "32",
						"value": "t_struct(Person)14_storage"
					},
					"t_struct(Item)7_storage": {
						"encoding": "inplace",
						"label": "struct Auction.Item",
						"members": [
							{
								"astId": 3,
								"contract": "contracts/Auction.sol:Auction",
								"label": "itemId",
								"offset": 0,
								"slot": "0",
								"type": "t_uint256"
							},
							{
								"astId": 6,
								"contract": "contracts/Auction.sol:Auction",
								"label": "itemTokens",
								"offset": 0,
								"slot": "1",
								"type": "t_array(t_uint256)dyn_storage"
							}
						],
						"numberOfBytes": "64"
					},
					"t_struct(Person)14_storage": {
						"encoding": "inplace",
						"label": "struct Auction.Person",
						"members": [
							{
								"astId": 9,
								"contract": "contracts/Auction.sol:Auction",
								"label": "remainingTokens",
								"offset": 0,
								"slot": "0",
								"type": "t_uint256"
							},
							{
								"astId": 11,
								"contract": "contracts/Auction.sol:Auction",
								"label": "personId",
								"offset": 0,
								"slot": "1",
								"type": "t_uint256"
							},
							{
								"astId": 13,
								"contract": "contracts/Auction.sol:Auction",
								"label": "addr",
								"offset": 0,
								"slot": "2",
								"type": "t_address"
							}
						],
						"numberOfBytes": "96"
					},
					"t_uint256": {
						"encoding": "inplace",
						"label": "uint256",
						"numberOfBytes": "32"
					}
				}
			},
			"userdoc": {
				"kind": "user",
				"methods": {},
				"version": 1
			}
		}
	}
}